:020000040000FA
:100000009805002049010000550100003914000046
:1000100000000000000000000000000000000000E0
:100020000000000000000000000000005901000076
:1000300000000000000000005B010000ED1B00005C
:100040005F0100005F0100005F0100005F01000030
:100050005F0100005F0100005F010000191D00004A
:100060005F0100005F0100005F0100005F01000010
:100070005F0100005F0100005F0100005F01000000
:100080005F010000B11E00005F0100005F01000081
:100090005F0100005F0100005F0100005F010000E0
:1000A0005F0100005F0100005F0100005F010000D0
:1000B0005F0100005F0100005F0100005F010000C0
:1000C00000F002F800F030F80CA030C8083824180E
:1000D0002D18A246671EAB4654465D46AC4201D180
:1000E00000F022F87E460F3E0FCCB6460126334282
:1000F00000D0FB1AA246AB463343184738630000D2
:10010000586300000023002400250026103A01D384
:1001100078C1FBD8520700D330C100D50B607047BF
:100120001FB51FBD10B510BD00F0E1F91146FFF776
:10013000F7FF02F0C3FE00F0F9F903B4FFF7F2FF96
:1001400003BC00F0FFF900000848804708488047DA
:1001500008480047FEE7FEE7FEE7FEE7FEE7FEE7AA
:1001600005480649044A064B70470000D51C0000AC
:10017000BD1C0000C100000098030020980500206D
:1001800098030020002203098B422CD3030A8B42E0
:1001900011D300239C464EE003460B433CD400227F
:1001A00043088B4231D303098B421CD3030A8B4291
:1001B00001D394463FE0C3098B4201D3CB01C01A5F
:1001C000524183098B4201D38B01C01A524143092A
:1001D0008B4201D34B01C01A524103098B4201D318
:1001E0000B01C01A5241C3088B4201D3CB00C01A85
:1001F000524183088B4201D38B00C01A52414308FD
:100200008B4201D34B00C01A5241411A00D2014621
:100210005241104670475DE0CA0F00D049420310BA
:1002200000D34042534000229C4603098B422DD309
:10023000030A8B4212D3FC22890112BA030A8B42B1
:100240000CD3890192118B4208D3890192118B4200
:1002500004D389013AD0921100E08909C3098B4285
:1002600001D3CB01C01A524183098B4201D38B01C8
:10027000C01A524143098B4201D34B01C01A52416B
:1002800003098B4201D30B01C01A5241C3088B42B0
:1002900001D3CB00C01A524183088B4201D38B009B
:1002A000C01A5241D9D243088B4201D34B00C01A25
:1002B0005241411A00D20146634652415B1010463A
:1002C00001D34042002B00D54942704763465B1082
:1002D00000D3404201B50020C046C04602BD704771
:1002E00070477047F0B5FF252D04C609C209FF27E6
:1002F00004462E400137CB093E4348402A402B405C
:100300000746002A6BD0002B69D0AA4267D0AB42C7
:1003100065D0002800DA32460125ED0529432C433B
:1003200009022002090AD21A4B0C7F24E31A434C1B
:10033000000A7C44E35C7D242404121914145B003D
:10034000A218884201D3521C00E0400049420C46EA
:100350005C4324115C43DB016415E318040A5C432D
:10036000C502200D0C4644436419250A5D4323034E
:10037000EC0C0D46654300030019EB184C42A342F8
:1003800001D35B18401CD4052018002B07D05B005C
:10039000C91804D3401C002901D1400840003F2166
:1003A00089048A4209D3002A08DC1106090F04D007
:1003B000032149074018C00FC007F0BD01224100CA
:1003C000120689187F2252069142F6D2052149076A
:1003D000C84201D59010F0BDFF20C005F0BD002F30
:1003E00000DA32461648AA4207D2AB4205D21902B9
:1003F000090E17D0F80FC007F0BDFF2563002D06CA
:10040000AB42F9D84900A942F6D8AB4201D1A94282
:10041000F2D0A94201D1002101E061004908D005D4
:100420000843F0BD1102090EFBD0FF200243D005A6
:10043000F0BD0A460146104654E70000BE600000C9
:100440000000C07F10B501469E240002CA15A30714
:10045000002A02D01843002A04DBA21A002A0CDD6D
:10046000D04010BD1206120E01D140004008A21A61
:1004700003D4D04040420028F3DDFF22480012069A
:10048000904201D9002010BDC817C043584010BD8C
:100490001F22030C02D10F2200041CD0030E01D135
:1004A0000002083A030F01D10001121F830F01D18E
:1004B0008000921E002801DB4000521ED205511818
:1004C000021251181922904004D3491C002801D16E
:1004D0004908490008467047C10FC90700D040428B
:1004E000012292071143D3E701218907D0E775461E
:1004F00000F024F8AE46050069465346C008C00027
:10050000854618B020B5FFF72BFE60BC00274908D0
:10051000B6460026C0C5C0C5C0C5C0C5C0C5C0C59B
:10052000C0C5C0C5403D49008D46704710B5044662
:10053000C046C0462046FFF700FE10BD0048704789
:100540003403002001491820ABBEFEE7260002005C
:10055000704730B58C180278401C13071B0F01D16F
:100560000378401C120906D10278401C03E005788C
:10057000401C0D70491C5B1EF9D101E00B70491C39
:10058000521EFBD1A142E6D3002030BD0EB50020A3
:10059000009001900E20029069460A4800F0F1FA9E
:1005A000002802D008A000F013F80021054800F050
:1005B000CEFA0321122001F05BFA122001F012FAA8
:1005C0000EBD000000300040204144430000000008
:1005D00004460F2002F02AF80421204601F0C2FF51
:1005E00000BFFEE710B505F021FB00BF10BD000005
:1005F0000421254AD161D1610821D1611021D16145
:100600002021D1614021D1618021D16120211F4A67
:10061000D1611021D161C107C90F002901D010217A
:10062000116202210140002902D02021174A1162E3
:1006300004210140002902D08021134A11620821BF
:100640000140002902D040210F4A116210210140CF
:10065000002902D020210C4A1162202101400029EA
:1006600002D01021084A116240210140002902D025
:100670000821054A116280210140002902D004218D
:10068000014A11627047000000140040001300404E
:1006900010B544480078002815D0434801880088E8
:1006A000401E414A1080002914D14048007800289B
:1006B00001D1012000E000203C490870FF20F53006
:1006C0003949088006E0002038490870FF20F530DD
:1006D0003549088002203649C8610120C8611020D0
:1006E0003449C8610820C8613349344A1278885CAB
:1006F000FFF77EFF2D480078002813D02F4801789F
:100700000120884027490978084000280AD00220A3
:100710002749C8610120C86110202649C861082006
:10072000C86130E002202249C8610120C861102060
:100730002049C8610820C86120480078002806D0F8
:10074000012808D002280AD0032810D10BE0082085
:100750001849086216E010201649086212E00120CC
:10076000134908620EE00220114908620AE00220E3
:100770000F4908620120086210200E490862082013
:10078000086200BF00BF0D480078401C0B4908708C
:100790000B48017809480078FFF7FEFCC8B207490A
:1007A000087010BDF7010020FA010020FC010020B4
:1007B0000013004000120040F3010020F801002067
:1007C000F201002010B501221146D24800F04AFA89
:1007D00000220121CF4800F073FA0221CD4800F039
:1007E00011FA01220021CB4800F03CFA0022114608
:1007F000C84800F065FA0121C64800F003FA01225A
:100800000421C54800F02EFA00220421C24800F05D
:1008100057FA1021C04800F0F5F901220321BE4823
:1008200000F020FA00220321BB4800F049FA082119
:10083000B94800F0E7F901220221B84800F012FAA5
:1008400000220221B54800F03BFA0421B34800F031
:10085000D9F901220321B14800F004FA0022032152
:10086000AE4800F02DFA0821AC4800F0CBF9012287
:100870000421AA4800F0F6F900220421A74800F05C
:100880001FFA1021A54800F0BDF901220521A34857
:1008900000F0E8F900220521A04800F011FA20211B
:1008A0009E4800F0AFF9012206219C4800F0DAF9D9
:1008B00000220621994800F003FA4021974800F0F1
:1008C000A1F901220721954800F0CCF90022072167
:1008D000924800F0F5F98021904800F093F9012248
:1008E00005218C4800F0BEF900220521894800F05E
:1008F000E7F92021874800F085F901220421854885
:1009000000F0B0F900220421824800F0D9F910214A
:10091000804800F077F902220021804800F0A2F917
:10092000012200217D4800F07DF9022206217C4849
:1009300000F098F902220621794800F073F90222AA
:100940000721774800F08EF902220721744800F051
:1009500069F901220221734800F084F90022022182
:10096000704800F0ADF904216E4800F04BF9012207
:1009700003216C4800F076F900220321694800F059
:100980009FF90821674800F03DF9012207216548D9
:1009900000F068F900220721624800F091F98021F7
:1009A000604800F02FF9012200215B4800F05AF95D
:1009B00000221146584800F083F90121564800F002
:1009C00021F902220421564800F04CF901220421A9
:1009D000534800F027F901220321514800F042F961
:1009E00008214F4800F00EF9012203214E4800F083
:1009F00039F9002203214C4800F062F908214A48E5
:100A000000F000F901220421474800F02BF90022F0
:100A10000421454800F054F91021434800F0F2F851
:100A200001220021404800F01DF9002211463E48F5
:100A300000F046F901213C4800F0E4F8012211469B
:100A4000394800F00FF900220121374800F038F949
:100A50000221354800F0D6F802220121314800F089
:100A600001F9032201212F4800F0DCF800220121C6
:100A70002C4800F025F9022200212A4800F0F2F863
:100A800003220021274800F0CDF800221146254816
:100A900000F016F9002201211F4800F0E3F80122BE
:100AA00011461D4800F00CF9002202211A4800F0FE
:100AB000D9F801220221184800F002F9022203218C
:100AC000144800F0CFF801220321124800F0AAF8E0
:100AD000022211460F4800F0C5F8012202210D48FC
:100AE00000F0A0F8012206210E4800F0BBF8002219
:100AF00006210C4800F0E4F840210A4800F082F892
:100B000001220421064800F0ADF81021044800F04D
:100B100079F810BD0013004000120040001400409E
:100B2000001500400011004000100040024610680F
:100B300003091B010807000F0343136000207047DF
:100B400001460A68102002430A600020704710B571
:100B500002460B46116820240846A0430146002B9C
:100B600001D0202001431160002010BD01464868DB
:100B700082B21005000D704701460868102210402F
:100B8000704710B50246002A01D1012010BD012096
:100B90008007C06A01242405A043A402E062204625
:100BA000406BA412A043A40260632046C06AA41252
:100BB0002043A402E0622046406BA4122043A4021A
:100BC0006063E013106008794007800CE413204351
:100BD0000C78E407640D2043034610331360087A51
:100BE000C006C00E90600020D0E70146002901D168
:100BF000012070470868FF2201321043086000207E
:100C0000F7E7000000BF1522054B1A6351221A6353
:100C100000BF016200BF00221A6300BF70470000DE
:100C2000C01F004070B5144600BF15250C4E35633B
:100C30005125356300BF08290BDA8D062A0E83681B
:100C40000F2595401E46AE433346254695402B431F
:100C5000836000BF0025024E356300BF70BD0000F9
:100C6000C01F0040F0B503461546032D00D10122F8
:100C70004E06340E00BF1526104F3E6351263E63CC
:100C800000BF18680326A6400746B74338461646F5
:100C9000A64030431860586801268E400746B74387
:100CA0003846032D02D101268E403043586000BFE4
:100CB0000026024F3E6300BFF0BD0000C01F004091
:100CC00070B50B465D062C0E00BF15250A4E356328
:100CD0005125356300BF01690325A5400E46AE438B
:100CE00031461546A5402943016100BF0025024E4B
:100CF000356300BF70BD0000C01F004001461048B2
:100D000081420CD1C004C06A10229043CA04D06250
:100D1000C804406B10229043CA0450630EE0094897
:100D200081420BD18005C06A202290438A05D0629F
:100D30008805406B202290438A055063002070474D
:100D4000004800400049004070B504460D462B485D
:100D5000844218D1C004C06A102188438906C86241
:100D60000846406B10218843890648630846C06ADC
:100D7000102108438906C8620846406B10210843C9
:100D8000890648631AE01E48844217D18005C06A6C
:100D9000202188434906C8620846406B20218843C9
:100DA000490648630846C06A202108434906C862CC
:100DB0000846406B20210843490648638020206094
:100DC000206820210843206029460E480068FFF76C
:100DD000D9F98008401E4008A061294609480068EA
:100DE000FFF7D0F98008401E4008E06101206061F3
:100DF0002068082108432060002070BD00480040A2
:100E0000004900400400002001218907C8617047A3
:100E10000146064A1068F02302469A4310460A012A
:100E20001043034A0243014B1A60704740000040E0
:100E3000000007A50146074A10680F231B0202465F
:100E40009A4310460A021043034A0243014B1A60B8
:100E50007047000040000040000007A5012905D1AF
:100E60008A07926902438B079A6106E00122920782
:100E70009269824301239B079A61704701460122D0
:100E80009207906B131202469A4310468A0510434C
:100E90001A0290637047014601229207906B531328
:100EA00002469A4310464A0410435A03906370471F
:100EB000014601229207906B4008400002460A4317
:100EC0001046012292079063704701460868082285
:100ED00010430860002070470246012904D11068C1
:100EE000CB031843106004E010680123DB03984330
:100EF00010600020704710B503460C46002C02D04D
:100F0000012C04D101E0202101E0102100BF00BF2D
:100F1000012A03D118680843186002E01868884362
:100F20001860002010BD0146086808221040002803
:100F300001D0012070470020FCE70000F8B503460F
:100F40000C466A48834218D18005806A9F13B843D3
:100F50009F05B8629805006B9F13B8439F053863DF
:100F60009805806A9F1338439F05B8629805006B07
:100F70009F1338439F05386357E05D48834219D17A
:100F80004005806A01277F04B8435F05B8625805B1
:100F9000006B7F13B8435F0538635805806A7F1381
:100FA00038435F05B8625805006B7F1338435F050F
:100FB00038633AE04F4883421AD101208007806AA3
:100FC0000127BF04B8433F03B8623846006B3F13A4
:100FD000B8433F0338633846806A3F1338433F03C2
:100FE000B8623846006B3F1338433F0338631CE058
:100FF0004148834219D101208007806A0127FF04FC
:10100000B843FF02B8623846006BFF12B843FF02D4
:1010100038633846806AFF123843FF02B8623846A8
:10102000006BFF123843FF023863002C19D11646BB
:10103000F0798003270338433246B7793F023843BB
:1010400081B2F079012803D1307AC002084381B21D
:101050001960B088401E0005000D18613088586086
:101060003EE0032C01D0022C1BD11546E879800309
:10107000270338432A46AF793F02384381B2E879E3
:10108000012803D1287AC002084381B21960A888D8
:10109000401E0005000D1861288858606888986017
:1010A0001EE0012C1CD10092009A50798003270386
:1010B00038431779BF01384381B2009A507901282B
:1010C00004D100988079C002084381B21960009869
:1010D0004088401E0005000D186100980088586087
:1010E00018680127384318600020F8BD002100402F
:1010F000002200400023004000270040014601205C
:101100008007806A01221206904392019062104685
:10111000006B92119043920110631046806A921105
:101120001043920190621046006B9211104392019D
:1011300010630020086048608860C86088610862A9
:1011400048628862C8620863486388637047000029
:1011500070B5044610461843054E30430546012934
:1011600002D13F20000205432562002070BD00002F
:1011700000006CE0024688B2906000207047024692
:1011800088B250600020704702460120C0038142AF
:1011900004D110680B461843106004E01068012366
:1011A000DB03984310600020704730B503460024ED
:1011B000002906D0012906D0022906D0032908D12A
:1011C00005E0042405E0082403E0102401E02024C5
:1011D00000BF00BF012A03D118682043186004E053
:1011E00018683C252540A8431860002030BD024601
:1011F000012904D150684B021843506004E0506844
:1012000001235B02984350600020704770B505468B
:101210000C465748854219D101208007C06AA9159C
:1012200088438905C8620846406B8915884389054B
:1012300048630846C06A891508438905C86208469C
:10124000406B89150843890548631AE0494885427F
:1012500017D18005C06A691588434905C8620846E8
:10126000406B49158843490548630846C06A4915DB
:1012700008434905C8620846406B491508434905BB
:101280004863012040026860207900281ED120793F
:101290008007000C617A8907890C0843217A490785
:1012A000090D0843C61C2E60A07AC007400F01211B
:1012B0004902084306466E602F48006800092F491E
:1012C00008602846216800F06BF84EE0207901287C
:1012D0001ED120798007000C617A8907890C0843A8
:1012E000217A4907090D0843C61C2E60A07AC00761
:1012F000400F01214902084306466E601E480068FF
:1013000040081E4908602846216800F049F82CE092
:101310002079032829D120798007000C217A4907F8
:10132000090D08436179C907C90D0843A179C907A7
:10133000090E0843E179C907490E0843C61C2E600F
:1013400068680821884368600B48006840080B49BA
:1013500008602846216800F023F8284600F010F8BD
:101360000646284600F00CF80646002070BD000036
:10137000003800400039004000000020000200203A
:1013800001464869C0B270470146002008714B20F1
:10139000400208600320087200204872887270477B
:1013A000F8B504460D460548066800953046009994
:1013B000FEF7E8FE471EB8B22061F8BD000200202B
:1013C00007B5002101980002000A0D4A90600298BA
:1013D0000002000A1061684641880078012805D1A2
:1013E0003F22920208469043014602E025208002F7
:1013F000014304480843024A106000200EBD00006B
:10140000001A0040A001695A02460948006881B2EA
:10141000FF20A1300143012A04D13F231B010846CC
:101420009843014603480843014B18600020704769
:10143000001A00400000695A00BFFEE710B50648D8
:10144000FFF75CFC05490448FFF77EFC002802D04A
:1014500003A0FFF7BDF810BD0048004050C30000D6
:10146000303030350000000070B504460D4613469C
:10147000002200BF07E01046521CFF26F536B0429E
:1014800001D9012070BD674840680426304000281B
:10149000F1D16448006801263043624E3060A020DC
:1014A0003061FF20706000220EE05E480068102668
:1014B0003040002800D008E01046521CFF26F536C8
:1014C000B04201D90220DDE7EFE700BF5548406890
:1014D00087280BD05348006802263043514E3060B5
:1014E000FF207060882030600320CBE74D48046106
:1014F000FF204C4E706000220EE04A480068102623
:101500003040002800D008E01046521CFF26F53677
:10151000B04201D90420B5E7EFE700BF4148406879
:1015200047280BD03F480068022630433D4E3060CC
:10153000FF207060882030600520A3E78920394EA5
:101540003060FF207060A120306100220EE035483D
:10155000006810263040002800D008E01046521CD9
:10156000FF26F536B04201D906208BE7EFE700BF32
:101570002C48406885280BD02A4800680226304352
:10158000284E3060FF20706088203060072079E7A7
:101590008820244E3060002136E0581E884202D157
:1015A0008020204E306000201E4E3061FF20706091
:1015B00000220EE01B48006810263040002800D0B2
:1015C00008E01046521CFF26F536B04201D908202B
:1015D00058E7EFE700BF1348406844280FD0114890
:1015E000406845280BD00F480068022630430D4E56
:1015F0003060FF20706088203060092042E7094891
:1016000000696854481CC1B29942C6DB05480068AD
:1016100002263043034E3060FF2070608820306027
:1016200000202FE70048004070B503460C461546E1
:10163000002200BF07E01046521CFF26F536B042DC
:1016400001D9012070BD4A48406804263040002876
:10165000F1D14748006801263043454E3060A02054
:101660003061FF20706000220EE0414800681026C3
:101670003040002800D008E01046521CFF26F53606
:10168000B04201D90020DDE7EFE700BF38484068ED
:1016900087280BD03648006802263043344E30602D
:1016A000FF207060882030600220CBE73048036163
:1016B000FF202F4E706000220EE02D48006810269B
:1016C0003040002800D008E01046521CFF26F536B6
:1016D000B04201D90320B5E7EFE700BF24484068D6
:1016E00047280BD02248006802263043204E306045
:1016F000FF207060882030600420A3E7002129E0EB
:10170000605C1B4E3061FF20706000220EE01848C4
:10171000006810263040002800D008E01046521C17
:10172000FF26F536B04201D905208BE7EFE700BF71
:101730000F48406847280BD00D4800680226304308
:101740000B4E3060FF20706088203060062079E703
:10175000481CC1B2A942D3DB0548006802263043C9
:10176000034E3060FF20706088203060002069E701
:101770000048004010B500F003F800F03BFA10BD3F
:1017800001208007806A3F2109020843012189075F
:1017900088620846006B3F2109020843012189073E
:1017A000086300BF15206D4908635120086300BF1E
:1017B0008007806A89150843890588620846006B9E
:1017C0008915084389050863FF2041306449086092
:1017D0000020486088600861886262485F49C039BB
:1017E0000860FF20486060480860FF208860002093
:1017F000086001208007806A49150843490588620E
:101800000846006B4915084349050863574858497D
:10181000086000204860574888600020086188629E
:1018200050484E49C0390860FF2048604E48086063
:10183000FF2088600020086001208007806A091569
:101840000843090588620846006B09150843090525
:101850000863494849490860002048604848886052
:101860000020086188623F483C49C0390860FF2079
:1018700048603D480860FF20886000200860012023
:101880008007806AC9140843C90488620846006B4F
:10189000C9140843C90408633748A03839490860A7
:1018A00000204860384888600020086188622D4820
:1018B0002A49C0390860FF2048602B480860FF2093
:1018C00088600020086001208007806A891408432E
:1018D000890488620846006B8914084389040863F8
:1018E0002248801D294908600120486028488860F6
:1018F0000020086188621B481849C0390860FF2031
:10190000486019480860FF208860002008600120B6
:101910008007806A49140843490488620846006BBE
:101920004914084349040863052000021949086066
:10193000002048608860086188620A480749C03909
:101940000860FF20486008480860FF208860002089
:10195000086000BF0149086300BF7047C01F004016
:101960000010004002070000000007A8A0AA000025
:101970000011004000142233AA0A000000120040A7
:10198000444404000013004044004400001400409C
:10199000014444440015004005490020085605490B
:1019A00000228A56904201D1012070470020FCE7B6
:1019B000840100208501002010B50A21074A00207B
:1019C0001056401CFEF7E8FBCCB2054800214156FA
:1019D0008C4201D1012010BD0020FCE785010020D0
:1019E00084010020C206D20E01219140014A1160FB
:1019F0007047000000E100E010B5002819DA1A4A2B
:101A000003071B0F083B9B089B00D2588307DC0E83
:101A1000FF23A3409A438B071B0E8407E40EA340C9
:101A20001A43114B0407240F083CA408A4001A51C0
:101A300018E00E4A03231B02D21883089B00D258D9
:101A40008307DC0EFF23A3409A438B071B0E8407FA
:101A5000E40EA3401A43054B032424021B198408F7
:101A6000A4001A5110BD00001CED00E000E100E0F0
:101A700010B5002819DA1A4A03071B0F083B9B0808
:101A80009B00D2588307DC0EFF23A3409A438B07A9
:101A90001B0E8407E40EA3401A43114B0407240FC6
:101AA000083CA408A4001A5118E00E4A03231B02A4
:101AB000D21883089B00D2588307DC0EFF23A34073
:101AC0009A438B071B0E8407E40EA3401A43054B71
:101AD000032424021B198408A4001A5110BD00001D
:101AE0001CED00E000E100E070B503460C46164630
:101AF0009807800F002803D1A007800F002801D08D
:101B0000012070BD354600F013FA81201C49486061
:101B1000282048601B4808630020486048605A201D
:101B20004860A52048600846806817490843144962
:101B3000886000BF00BF00BF00BF00BF002204E0FC
:101B4000286818601B1D2D1D121DA242F8D300BF6E
:101B500000BF00BF00BF0A488068042188430849CD
:101B600088600020886048604860812048602820A4
:101B700048600448086300204860486000BFC0E730
:101B800000010040000358780400800010B513489D
:101B90000088002804DD11480088401E0F49088095
:101BA0000F480088002804DD0D480088401E0C49BD
:101BB00008800C480088002804DD0A480088401E80
:101BC0000849088008480088002804DD0648008885
:101BD000401E0549088000F01DFC10BD08000020D3
:101BE0000A0000200C0000200E00002010B5FFF7B6
:101BF000CDFF10BD1CB500200190274880688021D2
:101C00008843254988600820FFF702F922480068C8
:101C100070218843214908431F49086008464068ED
:101C2000042188431E4908431B494860032080055E
:101C3000086200BF1848006AC00FC00700900198F2
:101C4000401C01900198401C002804D00121C907C4
:101C500000988842EED10198401C002803D007204C
:101C600040050D4908620C484068800880000C4916
:101C70000843801C084948600A480B4908600B4922
:101C800008600B480449403108610A48486188618E
:101C9000C861094808621CBD40000040000007A55B
:101CA00000000A570048E80100000020040000205E
:101CB000010301020102010201020100024803497D
:101CC00008600349086070470048E80100000020F0
:101CD0000400002072B609480949086009480A4909
:101CE00008600A4908608120094948602820486046
:101CF000084808630020486070470000A095695AB2
:101D0000001A004020A1070000000020040000206D
:101D1000000100400003587810B500F001F810BD34
:101D200010B51548FFF7FFF8012823D113480078B4
:101D3000401C12490870084600780A2804DB03F0AA
:101D40005FFF00200D49087003F04EFF0C4800783B
:101D5000002803D010200B49086202E01020094936
:101D6000C8610748007801214840054908700248C9
:101D7000FFF7ABF810BD0000002100401400002068
:101D800015000020001500400EB50120FFF776F881
:101D900000216846C17120218180642101800121D8
:101DA00081716A4600210C48FFF7C8F8002802D06C
:101DB0000AA0FEF70DFC012200210748FFF79BF85F
:101DC00003210720FFF754FE0720FFF70BFE012138
:101DD0000148FFF781F80EBD00210040303030335C
:101DE0000000000010B50120FFF755F80C48FFF780
:101DF00085F9002802D00BA0FEF7EAFB0B49084842
:101E0000FFF7BDF90648406841080548FFF7B2F9F9
:101E10000123DB03002201210148FFF799F910BDDE
:101E2000002400403030303600000000727700009F
:101E300010B50748C06820210840202806D1044872
:101E40004069C4B2204600F07FF800BF10BD00001A
:101E5000003900400EB56846FFF796FA4B20C001E6
:101E60000090032168460172002141728172694627
:101E70000C48FFF7CBF9002802D00BA0FEF7A8FB17
:101E8000012211460748FFF790F903211120FFF7BF
:101E9000EFFD1120FFF7A6FD01210248FFF7A7F98A
:101EA0000EBD00000039004030303034000000002A
:101EB00010B5FFF7BDFF10BD0EB50820FEF7BAFF45
:101EC0000020FEF7F5FF01210820FEF7C7FFFF20E5
:101ED000FEF79AFF01216846017000214180074802
:101EE000019040000290684607C8FFF769FA002891
:101EF00002D003A0FEF76CFB0EBD0000420F0000F5
:101F0000205744540000000010B50120FFF77CFA70
:101F100010BD30B47446641E2578641CAB4204D3F3
:101F2000635D5B00E31830BC18471D46F8E700000E
:101F30006620044948609920486000204863486052
:101F4000486070470001004010B50446FFF734FDBB
:101F500000280CD10A21064A1056401CFEF71CF935
:101F600048B203490870034800228A56845410BDC1
:101F7000850100208602002070B5044600259648A1
:101F800000780300FFF7C5FF09061C421B7C9FCAAF
:101F9000E6FB1B00012000F085FBC0B2A0420ED181
:101FA00001208D49087000208C490880401E8C4912
:101FB0000880204600F0C6F900208A490880F7E032
:101FC000894804700078042806D1022082490870EC
:101FD000204600F0B7F918E083480078062806D1BB
:101FE00002207D490870204600F0ACF90DE07E48E3
:101FF0000078032806D1022077490870204600F0B7
:10200000A1F902E0012079490870D1E07848007810
:10201000C10072480088884020437049088016201B
:1020200000F040FB022802DA00206C49088070486A
:102030000078401C6E4908700846007802281BD1C1
:102040000020087068480078042805D162490870AB
:102050000020684908800FE063480078062808D10E
:102060005D490870022064490870002061490880B9
:1020700002E001205D490870204600F063F997E016
:102080005B480078C1005B4800888840204359497C
:10209000088057480078401C554908700846007869
:1020A00002280CD150480078042805D1002008707F
:1020B00005204949087002E001204C49087020467B
:1020C00000F040F974E04A480078C100204688409A
:1020D0004449098808434349088045480078401C22
:1020E0004349087008460078022816D100203A4972
:1020F00008703F4908703B48008839490988884280
:1021000001D1012509E00820374908700020334932
:102110000880384908803349088049E03748344905
:102120000978445432480078401C31490870084608
:10213000007831490978884208DB00202C49087072
:1021400005202549087002202B490870204600F020
:10215000F9F82DE028480470002025490870264829
:102160000078142804DC08201B49087003E006E00E
:1021700002201E490870204600F0E4F818E01F48CD
:102180001B49097844541A480078401C18490870C3
:102190000846007818490978884205DB0020144970
:1021A000087005200C490870204600F0CBF800BFED
:1021B00000BF0E48007800280CD0002006490870A7
:1021C00009490870054908800A49088005490880BE
:1021D00006490870284670BDEA010020DE01002093
:1021E000E8010020E4010020DC010020ED010020D6
:1021F000EB010020E0010020E2010020A00200200D
:1022000070B50646002407E060000849085A6100DE
:10221000074A5052601CC4B2192CF5DB012000F0B3
:1022200095FC054600F06AF870BD000000700000E3
:102230005402002010B511480078002804D001286D
:1022400009D0062817D10EE000F09CFC012801D12E
:102250000A49087010E001F03BF8012802D106207D
:102260000649087008E001F091FC012802D1002025
:102270000249087000E000BF00BF10BD52000020FE
:102280000948007801280DD108480078002809D1B4
:10229000401E074908803220488001200349087009
:1022A0000449088070470000210000202000002021
:1022B000040200201E0000200A48007801280FD1E7
:1022C00009480A490880192048800948888019214E
:1022D0000648C1800120074908700220064908808D
:1022E00070470000210000207277000004020020E7
:1022F000B93B0000200000201E00002000B502466F
:10230000034802700078002801D100F003F800BDF6
:10231000210000200020024908700249088070470F
:10232000200000201E0000200020FF210902044B95
:102330000A689A4201D1012000E0002070470000A5
:1023400055AA000001460A4800784840C2B2084831
:1023500000880012064B18805000064B185A044B98
:102360001B885840024B18801846008870470000B0
:10237000E8010020B661000070B505460E46002059
:10238000C04307490880002400BF04E0285DFFF730
:10239000D9FF601CC4B2B442F8DB0148008870BDAC
:1023A000E801002018490A7801219140174A128853
:1023B0001140002921D001280FD1134909780029A3
:1023C00002D0012908D103E00421114AD16103E0C0
:1023D00008210F4AD16100BF14E00B490978002998
:1023E00002D0012908D103E00421094A116203E067
:1023F0000821074A116200BF04E00821044A116263
:1024000004211162704700008A0100208801002029
:102410000011004004480068002804D00248006809
:10242000401E0149086070471000002001E000BF15
:10243000401E0028FBD1704770B504460025FFF709
:10244000ABFA00280DD10A21074A1056401CFDF7AF
:10245000A3FE48B20449087004484A57805C2070C3
:102460000125284670BD000084010020860200205E
:1024700003480068002801D1012070470020FCE7D4
:102480001000002030B502460B460020042B00DD72
:1024900030BD002059E0115C8024214080292DD1DD
:1024A000145C6106490E412908DB5A2906DC0C46FA
:1024B000413C284D2C5D284D2C5418E0612908DB47
:1024C0007A2906DC0C46613C244D2C5D224D2C54AF
:1024D0000DE0302908DB392906DC0C46303C204D64
:1024E0002C5D1D4D2C5402E000241B4D2C541A4C25
:1024F000245C01252C43184D2C5425E0115C412906
:1025000008DB5A2906DC0C46413C124D2C5D124D6D
:102510002C5418E0612908DB7A2906DC0C46613C62
:102520000E4D2C5D0C4D2C540DE0302908DB392963
:1025300006DC0C46303C0A4D2C5D074D2C5402E065
:102540000024054D2C5400BF401C9842A3DB00BF63
:102550009EE70000DA630000F3010020C063000082
:10256000B663000070B502460B4600200021042B24
:1025700000DD70BD002004E000240D18204E7455CD
:10258000401C0428F8DB002036E0145C412C0ADBF8
:10259000145C5A2C07DC145C413C1A4D2C5D0D1860
:1025A000174E745527E0145C612C0ADB145C7A2CFE
:1025B00007DC145C613C144D2C5D0D18104E7455F5
:1025C00019E0145C302C0ADB145C392C07DC145C39
:1025D000303C0E4D2C5D0D18094E74550BE0145C0B
:1025E0002D2C04D102240D18054E745503E000244F
:1025F0000D18034E7455401C9842C6DB00BFB8E767
:10260000F3010020DA630000C0630000B66300003D
:10261000042800DD70470449095C01221143024A85
:10262000115400BFF6E70000F301002001490870D3
:1026300070470000F701002070B505462846FFF7F7
:10264000DFFD00240AE06000064A115A204600F02F
:1026500049FF0548FFF7EAFE601CC4B2192CF2DB03
:10266000012070BD540200201027000010B5044660
:102670000B48FEF765FA21460948FEF757FA084865
:10268000FEF7B3FA00E000BF0548FEF775FA102127
:1026900008401028F7D10248FEF768FA10BD000084
:1026A0000030004001464800014A105A70470000BF
:1026B00054020020024650184000014B185A70473F
:1026C000540200200148007870470000610000209B
:1026D000F8B505460E460027002403E06000285A9E
:1026E000C719641CB442F9DB31463846FDF74AFD90
:1026F00080B2F8BDFEB506460C460027002503E073
:102700006800305AC7196D1CA542F9DB2046FDF759
:10271000EBFE01903846FDF7E7FE00900199FDF7CA
:10272000E1FDFEBD0146022903DA4A000248805A53
:1027300070470020FCE700009201002001460229BA
:1027400003DA4800024A105A70470020FCE70000F4
:102750008E01002001464800014A105E70470000CB
:102760002C000020024908780021014A11707047AE
:1027700016000020024908780021014A11707047B4
:10278000ED010020F0B589B00646002008900790C2
:10279000CC480068069000248EE11720FFF782FFE6
:1027A00000280DD12046FFF7C9FF05210190FDF754
:1027B000F3FC07462046FFF7B5FF381885B212E054
:1027C0001720FFF76FFF002804D12046FFF7AAFF6C
:1027D000054608E02046FFF7B1FF07462046FFF711
:1027E000A1FF381885B228B26100B74A5052079944
:1027F000059803F073FC00900399FDF773FDB3494E
:10280000019003F013FC0746FDF71CFE08994018E1
:1028100000B2029000206100AD4A5052AD480490D1
:1028200021460920FFF746FFA84242DC214613203B
:10283000FFF740FFA8423CDB6000A749085A401C54
:102840006100A54A505221460920FFF733FFA842F4
:1028500023DC21460B20FFF72DFFA8421DDB600083
:102860009B49095E049881420BDA002061009B4A73
:10287000505260009A49085A401C6100984A5052D0
:1028800024E060009549085A401C6100934A505268
:1028900000206100924A505218E060008F49085AA7
:1028A000401C61008D4A5052002061008C4A5052F9
:1028B0000CE0002061008A4A50526100864A505262
:1028C0006100864A5052012006A908552146112070
:1028D000FFF7F0FEA84211DD082000F037F90128CB
:1028E00007D160007F49085A401C61007D4A505260
:1028F00008E0002061007B4A505203E000206100A4
:10290000784A505221461320FFF7D4FEA84211DA2C
:10291000102000F01BF9012807D160007249085A05
:10292000401C6100704A505208E0002061006E4A6D
:10293000505203E0002061006B4A5052600066492B
:10294000085A012824DB21460D20FFF7B3FE401C66
:102950006100624A515A884206DC6420610050528C
:10296000022006A9085513E021460D20FFF7A2FE1C
:10297000401C61005A4A515A884206DC64206100BA
:102980005052032006A9085502E0092006A908555F
:1029900021460D20FFF78EFE6100524A515A8842AF
:1029A00005DC642061005052052006A90855214627
:1029B0000D20FFF77FFE61004B4A515A884205DC2B
:1029C000642061005052042006A90855202000F020
:1029D000BDF8012825D106A8005D012803D10020FB
:1029E0004249085506E006A8005D032802D10120EF
:1029F0003E4908553D48005D012812D1214603207B
:102A0000FFF758FEA8420CDC21460920FFF752FED2
:102A1000A84206DD06A8005D022802D1032006A90F
:102A2000085560003249085E00281CDD6000085A25
:102A3000401E00B261002E4A505260002D49085CD1
:102A400006A9085500206100234A50526100244A1B
:102A500050526100214A50526100224A5052610096
:102A6000214A505226E00121204601F04BF806A8E9
:102A7000005D032816D121460F20FFF71BFE00281A
:102A800010DD06A8005D61001A4A50520021204660
:102A900001F038F821460F20FFF70CFE00B261006C
:102AA000134A5052FFF70EFE002802D106A8005D1F
:102AB000305500BF601CC4B2022C00DA6DE6012064
:102AC00009B0F0BDAC610000300000200000C84239
:102AD0002C0000200F2700003800002040000020BC
:102AE0003C0000204400002048000020500000204E
:102AF000340000204C00002070B504460025022060
:102B0000FFF7D0FDA04214DD0B48005D0300FFF786
:102B100000FA060D0408060A0B0D012508E004253D
:102B200006E0022504E000BF032501E0012500BF07
:102B300000BF284670BD0000540000200146480038
:102B4000014A105A80B27047300000200146002030
:102B5000034A528D0A40002A00D00120704700002D
:102B60005402002010B50024FFF7FCFD0446002CA1
:102B700006D00120FFF7EAFF002801D0FFF79CFBF9
:102B8000204610BD70B500252D4800780300FFF7E2
:102B9000C0F905041528334A5300FFF7C5FB002888
:102BA00002D000F041F902E00020FFF745FD0A20C5
:102BB00000F082FF0120224908703DE0FFF758FC39
:102BC000002807D000F058FC02201D4908700A2098
:102BD00000F072FFFFF7A8FB002801D1FDF702FD0E
:102BE0002AE0FFF745FC002805D00A2000F064FF2A
:102BF00003201349087000BFFFF73AFC002811D0EA
:102C0000042110A0FFF73EFC002405E0012120462E
:102C100000F078FF601CC4B2022CF7DB04200849E6
:102C2000087000BF08E000F011F8012803D1012569
:102C300000200349087000BF00BF284670BD000097
:102C40005300002076303035000000000148007845
:102C500070470000A8010020FFB583B007460E466C
:102C60000297002500200190059D1AE00699029820
:102C7000FDF792FA0C46002C0ADB092C08DC2046F2
:102C80003030C1B2681E31540198401C019002E0FE
:102C90000021681E315406990298FDF77DFA0290D2
:102CA0006D1E002DE2D1019807B0F0BD00205749FC
:102CB000496902221140002901D1022006E053494E
:102CC000496904221140002900D10320002805DDB4
:102CD0004F490988491C4E4A118032E04D49097814
:102CE000002925DD4C490988491C4B4A11801146B1
:102CF0000988002909DB0021118046490978474AE3
:102D000011700021434A117015E0454909780129E5
:102D100011D10021404A11803E49097840221143D7
:102D20003E4A117000213B4A11703D4A117002E089
:102D30000021394A11800021354A11800121394A88
:102D400011703849097801291ED1314909880529AE
:102D50005BDB30490978002908D12E49087002212F
:102D6000304A117000212A4A118009E02949097866
:102D7000814205D101212A4A11700021244A118083
:102D80000021254A118040E026490978022911D105
:102D90001F490988C82938D100211E4A11704021D5
:102DA00001431E4A117003211E4A11700021184A66
:102DB00011802AE01B490978032911D11449098897
:102DC000642922D10021134A117080210143134A42
:102DD00011700421134A117000210D4A118014E072
:102DE00010490978042910D10949098864290CD1AE
:102DF0000021084A117080210143084A1170042102
:102E0000084A11700021024A1180704700120040E8
:102E1000180000201A0000201C00002016000020CE
:102E20001B0000201700002070B5002407E020469A
:102E300000F012F86100074A5052601CC4B2192C0D
:102E4000F5DB0120FFF782FE0546FFF757FA012068
:102E500070BD000054020020F8B504460025002093
:102E600000900026002700BF10E0FEF7E7FA610699
:102E7000080E02226946FEF7F7FA0746002F01D135
:102E8000012705E0FEF7DAFA701CC6B2032EECDB70
:102E900000BF012F02D007A0FDF79AFB002005E03C
:102EA0006946095CC20091400D43401C0228F7DBD3
:102EB0002846F8BD3030303100000000FEF75AFCE3
:102EC0007D21C90027480068FDF75CF90446601EB3
:102ED0002549884200D90CE0601E2449486103213D
:102EE000081FFEF789FD002020498861072008613E
:102EF00000BF62B601201E4908800A201D490880D3
:102F000064201D4908807D20C0001C49088002F013
:102F10007FFE26E016480088002804D102F06CFEEF
:102F200001201349088013480088002804D102F0CA
:102F30005FFE0A200F4908800F480088002804D14E
:102F400002F04AFE64200C4908800C4800880028E2
:102F500005D102F035FE7D20C0000849088002F04E
:102F600053FED7E700000020FFFFFF0000E000E075
:102F7000080000200A0000200C0000200E000020A5
:102F800070B500251620FFF78DFB00280FD1002417
:102F90000AE02046FFF7B0FD29466A1CD5B2490079
:102FA000144A5052601CC4B2022CF2DB21E000240F
:102FB0001DE02046FFF7A0FD29466A1CD5B2490056
:102FC0000C4A50522046FFF7B9FD29466A1CD5B27B
:102FD0004900084A50522046FFF7BCFB82B22846FF
:102FE000691CCDB2400003490A52601CC4B2022CD5
:102FF000DFDB70BD0C03002038B580480078002866
:1030000006D001287ED002287DD003287CD1E6E0BE
:103010006846FFF711FA002877D000F053F96846A8
:103020000078FEF7A9FF002870D0754800780428C2
:1030300047D17448008814283BDC734800887D2100
:10304000C90088420BDA6F4801886F48008800F099
:10305000A3FA6E49088001206849087031E06A4887
:1030600000887D21C90088421ADB674800886849CA
:10307000884215DA67480088002808D0614801882E
:103080006148008800F0DAFA6049088004E007200F
:1030900000F05AFA5D49088001205849087010E094
:1030A000022000F051FA5949088001205349087064
:1030B00007E0022000F048FA5449088001204F49F7
:1030C00008704F48007806286ED14F4800887D214F
:1030D000C900884229DB4C4800884D49884224DADF
:1030E0004C480088002817D04B4802784B49464886
:1030F000008800F09BF804464348008800F0EAFA94
:10310000424904E051E05AE076E04DE03EE00880BC
:1031100001203A49087047E0072000F015FA3B49C2
:1031200008800120354908703EE0374800883C4956
:10313000884222D13948007800023849497808434A
:103140000446FF20FF3084420ED14B20C00031499D
:10315000088021462C48008800F0F4FA2B490880AA
:1031600001202649087007E0072000F0EDF9274903
:10317000088001202149087016E0022000F0E4F9DF
:103180002249088001201D4908700DE0FFF7F2FA7E
:103190000446002C07D0204600F0D6F91B490880D1
:1031A00001201649087000BF26E040201D49C86173
:1031B000052000F081FC0220104908701CE0FFF798
:1031C00057F900280AD011480178174802F03CFD51
:1031D000052000F071FC0320084908700CE0FFF79F
:1031E00047F9002807D040200E490862002007490F
:1031F00008800249087000BF00BF38BDEE01002002
:10320000DC010020E0010020DE010020F0010020B0
:103210004C040000E6010020E2010020A002002092
:103220008813000000110040B4020020FEB50646DD
:103230000D4617460020029000907D20C000301AF5
:1032400080B201900198192816DA00240CE020467B
:10325000611CCCB2285C0090009800022146621CE0
:10326000D4B2695C08430090BC42F0DB0199C8B25B
:10327000009900F001FC01E0012002900298FEBDDF
:103280000C480078401C0B4908700B480088002847
:1032900004DD09480088401E074908800548007879
:1032A000052806DD00200549087005490870014918
:1032B00008707047EC010020E6010020EA010020C0
:1032C000EB0100200020014908707047EC0100204C
:1032D000F8B50025002400200090FFF743FC0446C9
:1032E00054480078002802D0012809D109E00020C4
:1032F0005149087001204F49087000204F4908705B
:103300008FE00220FFF7CEF94D4900228A56904205
:1033100062DD4A480078002802D001285BD14AE0EB
:103320004848474900228A56805C0300FEF7F1FDB9
:103330000A24060B10151A2424241F24042142A059
:10334000FFF7A0F818E0042141A0FFF79BF813E075
:10335000042141A0FFF796F80EE0042140A0FFF7FA
:1033600091F809E0042140A0FFF78CF804E0042163
:103370003FA0FFF787F800BF00BF31480078002862
:103380000CD13121684601700078802108436946DC
:10339000087001216846FFF775F80BE03221684696
:1033A0000170007880210843694608700121684651
:1033B000FFF768F80FE022490878FFF7BFFB0646E1
:1033C0000A23042269463046FFF746FC042168467A
:1033D000FFF758F800BF00BF022C12D11848007840
:1033E000401C40B2164908700220FFF75BF9064600
:1033F0003146134A00201056FCF7CEFE10480170EB
:103400000EE0032C0CD10D480078401C0B490870CD
:103410000878C10F091849104900411A074A11706C
:1034200000BF00BF432C03D10120034908700125D0
:103430002846F8BD680000206000002069000020D8
:103440006A00002054000020206E6F72000000000F
:10345000206C616B000000002068326F00000000EB
:1034600020736874000000002062726B000000008E
:1034700020416E6C000000000D480078012815D135
:103480000C480D490880FA2048800C488880FA21B1
:103490000948C1800A4808490881FA210648418143
:1034A0000120084908700320074908807047000080
:1034B000210000207277000004020020CD5E000091
:1034C000B84F0000200000201E00002010B5044668
:1034D000012C03D10220FFF739FB02E00220FFF7A5
:1034E00035FB10BDF8B505460E4600270024002028
:1034F000009000BF05E0C2003146D1406A46115439
:10350000401C0228F7DB002710E0FDF797FF690653
:10351000080E02226946FEF787F80446002C01D106
:10352000012405E0FDF78AFF781CC7B2032FECDB0E
:1035300000BF012C02D002A0FDF74AF82046F8BDDA
:10354000303030300000000070B505460024012006
:10355000FFF7A8F8C2B22146641C0D4842540D483A
:103560000178802001432246641C09488154214689
:10357000641C45542146FEF7FFFE06462146641CA6
:103580000348465432122146641C4254204670BD02
:10359000B4020020DC010020F3B581B00E46002407
:1035A000002500200090019800900120FFF77AF894
:1035B000C2B22146641C1E4842541E48027821466D
:1035C000641C1B4842547006020E2146641C1848B5
:1035D000425400BF17E000994919142901DB00206B
:1035E00004E0009949194900134A505A0212214631
:1035F000631C9CB20E4B5A542146631C9CB20C4B6C
:103600005854681C85B2B542E5DB21460848FEF7F0
:10361000B3FE07462046611C8CB205490F543A128E
:103620002046611C8CB202490A542046FEBD0000AF
:10363000B4020020DC0100200C030020F3B581B0AF
:103640000D46002400270120FFF72CF8C2B22146C6
:10365000641C1E4842541E4802782146641C1B48C4
:1036600042546806020E2146641C1848425400BFAA
:1036700018E07D22D2000199891AC919C8B2FFF752
:1036800011F80090009802122046611C8CB20F497C
:103690000A540098C2B22046611C8CB20B490A54ED
:1036A000781C87B2AF42E4DB21460848FEF764FE8F
:1036B00006462046611C8CB204490E543212204644
:1036C000611C8CB201490A542046FEBDB4020020A0
:1036D000DC010020F8B5054600247D21C900691AE7
:1036E000C8B2FEF7DFFF07460120FEF7DBFFC2B2DC
:1036F0002146641C11484254114802782146641C3A
:103700000E4842542A122146641C42542146641C2D
:1037100045543A122146641C42542146641C4754C5
:103720002146FEF729FE06462146641C03484654FE
:1037300032122146641C42542046F8BDB4020020D7
:10374000DC010020F8B505460E4600240120FEF7F6
:10375000A9FFC2B22146641C1148425411480278A4
:103760002146641C0E4842542A122146641C4254CD
:103770002146641C455432122146641C42542146A1
:10378000641C46542146FEF7F7FD07462146641C9B
:10379000034847543A122146641C42542046F8BD5F
:1037A000B4020020DC01002010B50A48007800288F
:1037B00002D001280AD104E00920FEF757FF044691
:1037C00004E00820FEF752FF044600BF00BF204679
:1037D00010BD00008A01002010B591480088002823
:1037E00078D09048007800281AD18F480088401C73
:1037F0008D490880012000F099F90120FEF7D2FDE3
:10380000894800887D21C900884208DB002086495C
:103810000880012083490870002084490860FEE088
:103820008048007801281CD1FFF7BEFF7F49096856
:1038300040187E4908607C480088401C7A4908800E
:10384000FFF7B2FF7A49088077480088FF21F531F9
:103850008842E4DB00207449088002207149087026
:10386000DDE070480078022817D16F480088401CBE
:103870006D490880002000F059F96B4800887D21CF
:10388000C9008842CBDB00206749088003206549D6
:103890000870002067490860C1E06248007803288A
:1038A00019D1FFF781FF6349096840186149086031
:1038B0005D480088401C5C49088008460088FF215C
:1038C000F5318842ABDB0020574908800420554978
:1038D0000870A4E099E05348007804289FD152482A
:1038E0000088401C504908800020FEF75BFDFFF770
:1038F0005BFF5149088008460088522803DD4A488A
:1039000000884E4908604C4800881E2803DD464860
:1039100000884B490860444800887D21C9008842DE
:103920007DDB0020404908803E4908700120454960
:103930000870FF21F5313F480068FCF723FC42493D
:1039400009884900414A5052414800883E49098847
:103950004900404A5052FF21F53134480068FCF7D5
:1039600011FC3949098849003B4A50523B480088BC
:103970003549098849003A4A505233480088401C6A
:103980003149088008460088022848D10020088074
:1039900002213148FEF79CFE324909784A0032493B
:1039A00088523048007841002F48405A2F490880FB
:1039B00002212B48FEF79EFE2A49097889002C4AED
:1039C000505002212448FEF795FE264909788A00C6
:1039D00027490831885023480078401C2149087045
:1039E00008460078022802D10120224908701D49AA
:1039F0000878C10F091849104900411A194A117075
:103A00001046007800F05EF809E001200D490870CA
:103A1000002004490870044908800B49088010BD43
:103A200088010020B4010020D8010020B801002046
:103A30008C010020BC010020AA010020AC01002064
:103A4000B0010020B5010020DA010020D0010020E3
:103A5000C4010020D4010020C8010020C0010020C2
:103A6000CC0100208A010020920100209601002054
:103A700090020020A801002070B505460C466800A1
:103A800003490C5221462846FFF72CFD204670BD05
:103A90005402002070B505460E461446A819400091
:103AA00004490C52A919C8B22146FFF71BFD204654
:103AB00070BD0000540200200149086070470000FA
:103AC0001000002000B50300FEF723FA05040A10D9
:103AD0001112130008210A4A11620421D1610DE07C
:103AE0000421074A11620821D16107E006E005E0E0
:103AF00004E00421024A1162116200BF00BF00BD50
:103B000000110040002907D001228240064B1B888B
:103B10001A43054B1A8006E001228240024B1B88A3
:103B20009343014A1380704788010020002806D083
:103B30008021064AD1610121054AD16105E0802139
:103B4000024A11620121024A1162704700110040CD
:103B50000012004070B504460D46012D05D10A48FB
:103B6000408D20430849488504E00748408DA04324
:103B7000054948850448418D1520FFF7B3FC0248EC
:103B8000408DC0B270BD00005402002070B500240A
:103B9000002519480078800018490E58B04705469E
:103BA000012D04D0022D10D0032D21D11BE012488D
:103BB0000078002803D118200F49087004E00E484F
:103BC0000078401E0C49087012E00B480078401C39
:103BD00009490870192108480078FCF7DDFAC8B2D5
:103BE0000549087004E0002003490870012400BF63
:103BF00000BF204670BD0000D00000206C000020F7
:103C000070B500250024FEF7ADFF04462548007876
:103C1000002818D10820FEF799FF234908700020DA
:103C2000FEF704FD022C02D0032C06D101E0022590
:103C300003E001201B49087000BF00BF04211BA046
:103C4000FEF790FC2CE0F020FEF7F0FC022C02D0F6
:103C5000432C17D10DE014480078401C124908701D
:103C60000878C10F091849104900411A0E4A11700D
:103C700008E00D4801780820FFF76CFF0020094993
:103C8000087000BF00BF08480078002804D0042155
:103C900008A0FEF767FC03E0042108A0FEF762FC21
:103CA000284670BD650100206401002062726F43E8
:103CB000000000004F6E2020000000004F4646200C
:103CC00000000000F8B500250024FEF74BFF044675
:103CD00057480078002826D1564908700021112045
:103CE000FEF7E8FC544908600A2153480068FCF7D5
:103CF00053FAC8B2514908700020FEF797FC022C15
:103D000002D0032C06D101E0022503E0012048493E
:103D1000087000BF00BF042149A0FEF723FC00206B
:103D2000FEF776FC81E043490A78082111410846F4
:103D3000FEF77CFC022C3FD0032C02D0432C57D141
:103D40004BE03C480022825650003F4A115A3A4804
:103D50000068FCF721FA06460A21FCF71DFAC8B2F2
:103D60003649087033480021415648003649085A00
:103D700032490978484330490968081A2E490860D1
:103D80002E490978491CC9B22C4A117008460A21EB
:103D9000FCF702FAC8B229490870264800214156AA
:103DA00048002949085A25490978484322490968A1
:103DB0004018214908601BE01E480078401C40B2B2
:103DC0001C49087000200856C117890F091889106E
:103DD0008900411A174A11700AE01748008882B218
:103DE00000211120FFF756FE00201149087000BF86
:103DF00000BF1148006801210903884202DD00204C
:103E00000D4908600C480068002803DA012000030F
:103E1000094908600A230422694607480068FEF73A
:103E20001BFF04216846FEF79DFB2846F8BD0000F5
:103E30002201002029010020240100202801002067
:103E40003142726B00000000AE610000F8B5002541
:103E50000024FEF787FE044657480078002826D144
:103E60005649087001211120FEF724FC54490860CE
:103E70000A2153480068FCF78FF9C8B2514908700D
:103E80000020FEF7D3FB022C02D0032C06D101E068
:103E9000022503E001204849087000BF00BF04214B
:103EA00049A0FEF75FFB0020FEF7B2FB81E043492B
:103EB0000A78082111410846FEF7B8FB022C3FD0D2
:103EC000032C02D0432C57D14BE03C4800228256B1
:103ED00050003F4A115A3A480068FCF75DF906461F
:103EE0000A21FCF759F9C8B2364908703348002155
:103EF000415648003649085A324909784843304902
:103F00000968081A2E4908602E490978491CC9B267
:103F10002C4A117008460A21FCF73EF9C8B229491B
:103F2000087026480021415648002949085A254969
:103F300009784843224909684018214908601BE074
:103F40001E480078401C40B21C49087000200856EA
:103F5000C117890F091889108900411A174A117071
:103F60000AE01748008882B201211120FFF792FD74
:103F700000201149087000BF00BF114800680121EE
:103F80000903884202DD00200D4908600C480068E2
:103F9000002803DA01200003094908600A230422EB
:103FA000694607480068FEF757FE04216846FEF799
:103FB000D9FA2846F8BD00002A010020310100206E
:103FC0002C010020300100203242726B0000000002
:103FD000AE61000070B500250024FEF7C3FD044665
:103FE00028480078002818D10120FEF7AFFD2649A7
:103FF00008700020FEF71AFB022C02D0032C06D119
:1040000001E0022503E001201E49087000BF00BF47
:1040100004211EA0FEF7A6FA32E0F020FEF706FB10
:10402000022C02D0432C1DD10DE017480078401C13
:10403000154908700878C10F091849104900411A3C
:10404000114A11700EE0104801780120FFF782FD3F
:104050000120FEF77BFD0646FEF750F900200949D6
:10406000087000BF00BF08480078002804D0042171
:1040700008A0FEF777FA03E0042108A0FEF772FA21
:10408000284670BD6B0100206A010020536F6E64EA
:10409000000000004F6E2020000000004F46462028
:1040A0000000000070B50024002504210AA0FEF7DE
:1040B00059FAFEF757FD0546022D02D0032D08D10F
:1040C00001E0022405E0FDF7F7FEFDF71DFF0324E4
:1040D00000BF00BF204670BD455849540000000095
:1040E000F8B500260025FEF73DFD0546524800784C
:1040F000002815D1FEF79AFA022D02D0032D09D11E
:1041000001E0022606E000204C49087001204A49DF
:10411000087000BF00BF042149A0FEF723FA89E020
:1041200046490A78082111410846FEF77FFA022D18
:104130003FD0032D02D0432D60D14BE03F480022F9
:1041400082565000404A115A40480068FCF724F853
:1041500007460A21FCF720F8C8B23D4908703748E5
:104160000021415648003849085A394909784843DE
:1041700036490968081A3549086035490978491CE3
:10418000C9B2334A117008460A21FCF705F8C8B2D3
:104190002F49087029480021415648002A49085AE9
:1041A0002B4909784843294909684018274908607C
:1041B00024E022480078401C40B2204908700020CA
:1041C0000856C117890F091889108900411A1B4A1E
:1041D000117013E01D480068FF21FF31884207D1AC
:1041E0000020FEF729FAFDF767FEFDF78DFE04E0DB
:1041F0000020164908601049087000BF00BF0A235C
:104200000422694611480068FEF726FD00240BE0F1
:104210000A48002141568C4204D02D200321091B5D
:104220006A465054601CC4B2042CF1DB0421684679
:10423000FEF798F93046F8BD7001002072010020A9
:104240004645437400000000AE6100006C01002090
:104250007101002070B500250024FEF783FC0446A0
:1042600025480078002818D12020FEF76FFC23494C
:1042700008700020FEF7DAF9022C02D0032C06D1D8
:1042800001E0022503E001201B49087000BF00BFC8
:1042900004211BA0FEF766F92CE0F020FEF7C6F91A
:1042A000022C02D0432C17D10DE014480078401C9A
:1042B000124908700878C10F091849104900411ABD
:1042C0000E4A117008E00D4801782020FFF742FCEB
:1042D00000200949087000BF00BF08480078002886
:1042E00004D0042108A0FEF73DF903E0042108A052
:1042F000FEF738F9284670BD6901002068010020EA
:1043000048647279000000004F6E20200000000019
:104310004F4646200000000070B500250024FEF73F
:1043200021FC044624480078002818D10420FEF718
:104330000DFC224908700020FEF778F9022C02D00B
:10434000032C06D101E0022503E001201A49087080
:1043500000BF00BF04211AA0FEF704F929E0022CD7
:1043600002D0432C17D10DE014480078401C1349AB
:1043700008700878C10F091849104900411A0F4AFE
:10438000117008E00D4801780420FFF7E3FB0020DE
:104390000949087000BF00BF08480078002804D011
:1043A000042109A0FEF7DEF803E0042108A0FEF7CF
:1043B000D9F8284670BD000063010020620100208A
:1043C00048326F72000000004F6E20200000000095
:1043D0004F46462000000000F8B500250024FEF7F7
:1043E000C1FB044653480078002822D15249087086
:1043F0000120FEF757F9514908600A214F4800682B
:10440000FBF7CAFEC8B24E4908700020FEF70EF94D
:10441000022C02D0032C06D101E0022503E001208A
:104420004449087000BF00BF042146A0FEF79AF877
:104430007DE041490A78082111410846FEF7F6F867
:10444000022C3FD0032C02D0432C56D14BE03A48EB
:104450000022825650003D4A115A38480068FBF746
:104460009BFE06460A21FBF797FEC8B23449087046
:1044700031480021415648003449085A30490978EA
:1044800048432E490968081A2C4908602C490978C4
:10449000491CC9B22A4A117008460A21FBF77CFE62
:1044A000C8B22749087024480021415648002749CE
:1044B000085A2349097848432049096840181F4988
:1044C00008601AE01C480078401C40B21A49087085
:1044D00000200856C117890F091889108900411A50
:1044E000154A117009E01548008881B20120FFF7D4
:1044F000C3FA00200F49087000BF00BF0F480068D2
:10450000FF2802DD01200D4908600C4800680128E1
:1045100002DAFF20094908600A2304226946074895
:104520000068FEF799FB04216846FEF71BF8284651
:10453000F8BD000079010020810100207C010020ED
:10454000800100204D2D494400000000AE610000B4
:1045500070B500250024FEF705FB04462C480078C2
:10456000002819D100211620FEF7A4F82949088057
:104570000020FEF75BF8022C02D0032C06D101E0EC
:10458000022503E001202249087000BF00BF04217A
:1045900021A0FDF7E7FF39E0F020FEF747F8022CF5
:1045A00002D0432C18D10DE01A480088401C19494C
:1045B0000880032117480088FBF7EEFD88B21549F3
:1045C000088009E01348028800211620FFF762FAEC
:1045D00000200F49087000BF00BF0E480088002867
:1045E00004D0012807D002280FD109E004210CA033
:1045F000FDF7B8FF09E004210BA0FDF7B3FF04E0CD
:1046000004210BA0FDF7AEFF00BF00BF284670BD20
:1046100078010020760100204D2D2056000000007A
:1046200020207631000000002020763200000000BB
:104630002020763300000000F8B500250024FEF7A6
:1046400091FA044657480078002826D15649087048
:1046500000210320FEF72EF8544908600A21534830
:104660000068FBF799FDC8B2514908700020FDF7BA
:10467000DDFF022C02D0032C06D101E0022503E06D
:1046800001204849087000BF00BF042149A0FDF780
:1046900069FF0020FDF7BCFF81E043490A7808214B
:1046A00011410846FDF7C2FF022C3FD0032C02D077
:1046B000432C57D14BE03C480022825650003F4AE1
:1046C000115A3A480068FBF767FD06460A21FBF7D6
:1046D00063FDC8B23649087033480021415648008E
:1046E0003649085A32490978484330490968081A56
:1046F0002E4908602E490978491CC9B22C4A11700C
:1047000008460A21FBF748FDC8B229490870264827
:104710000021415648002949085A2549097848434B
:10472000224909684018214908601BE01E480078AA
:10473000401C40B21C49087000200856C117890F60
:10474000091889108900411A174A11700AE01748A0
:10475000008882B200210320FFF79CF90020114954
:10476000087000BF00BF114800680121090388429A
:1047700002DD00200D4908600C480068002803DABB
:1047800001200003094908600A23042269460748FA
:104790000068FEF761FA04216846FDF7E3FE28464B
:1047A000F8BD0000D1000020D9000020D400002076
:1047B000D8000020314C454C00000000AE610000E4
:1047C000F8B500250024FEF7CDF9044657480078D7
:1047D000002826D15649087001210320FDF76AFF01
:1047E000544908600A2153480068FBF7D5FCC8B259
:1047F000514908700020FDF719FF022C02D0032C4C
:1048000006D101E0022503E001204849087000BFFD
:1048100000BF042149A0FDF7A5FE0020FDF7F8FE2A
:1048200081E043490A78082111410846FDF7FEFE60
:10483000022C3FD0032C02D0432C57D14BE03C48F4
:104840000022825650003F4A115A3A480068FBF74E
:10485000A3FC06460A21FBF79FFCC8B23649087044
:1048600033480021415648003649085A32490978F0
:10487000484330490968081A2E4908602E490978CA
:10488000491CC9B22C4A117008460A21FBF784FC66
:10489000C8B22949087026480021415648002949D4
:1048A000085A25490978484322490968401821498E
:1048B00008601BE01E480078401C40B21C4908708C
:1048C00000200856C117890F091889108900411A5C
:1048D000174A11700AE01748008882B201210320AC
:1048E000FFF7D8F800201149087000BF00BF114839
:1048F000006801210903884202DD00200D4908609B
:104900000C480068002803DA012000030949086008
:104910000A230422694607480068FEF79DF904212E
:104920006846FDF71FFE2846F8BD0000DA000020AB
:10493000E1000020DC000020E0000020324C454C6B
:1049400000000000AE61000070B500250024FEF7F5
:1049500009F9044625480078002818D14020FEF7C0
:10496000F5F8234908700020FDF760FE022C02D004
:10497000032C06D101E0022503E001201B49087049
:1049800000BF00BF04211BA0FDF7ECFD2CE0F020D0
:10499000FDF74CFE022C02D0432C17D10DE0144839
:1049A0000078401C124908700878C10F0918491096
:1049B0004900411A0E4A117008E00D480178402064
:1049C000FFF7C8F800200949087000BF00BF084879
:1049D0000078002804D0042108A0FDF7C3FD03E0FF
:1049E000042108A0FDF7BEFD284670BD740100201B
:1049F0007301002072454353000000004175746F3D
:104A000000000000486F6C640000000070B50025D5
:104A10000024FEF7A7F8044624480078002818D19F
:104A20000220FEF793F8224908700020FDF7FEFDF2
:104A3000022C02D0032C06D101E0022503E0012064
:104A40001A49087000BF00BF04211AA0FDF78AFDB3
:104A500029E0022C02D0432C17D10DE01448007835
:104A6000401C134908700878C10F09184910490003
:104A7000411A0F4A117008E00D4801780220FFF733
:104A800069F800200949087000BF00BF0848007895
:104A9000002804D0042109A0FDF764FD03E00421EF
:104AA00008A0FDF75FFD284670BD000083010020CF
:104AB0008201002052654C79000000004E6F2020DA
:104AC000000000004E6320200000000070B50025AB
:104AD0000024FEF747F8044625480078002818D13E
:104AE0001020FEF733F8234908700020FDF79EFDE3
:104AF000022C02D0032C06D101E0022503E00120A4
:104B00001B49087000BF00BF04211BA0FDF72AFD50
:104B10002CE0F020FDF78AFD022C02D0432C17D1A7
:104B20000DE014480078401C124908700878C10F45
:104B3000091849104900411A0E4A117008E00D4841
:104B400001781020FFF706F800200949087000BF1F
:104B500000BF08480078002804D0042108A0FDF711
:104B600001FD03E0042108A0FDF7FCFC284670BD10
:104B700067010020660100205368744300000000B4
:104B80004F6E2020000000004F464620000000002D
:104B9000F8B500250024FDF7E5FF044657480078E6
:104BA000002826D15649087000211320FDF782FD08
:104BB000544908600A2153480068FBF7EDFAC8B26F
:104BC000514908700020FDF731FD022C02D0032C62
:104BD00006D101E0022503E001204849087000BF2A
:104BE00000BF042149A0FDF7BDFC0020FDF710FD2A
:104BF00081E043490A78082111410846FDF716FD76
:104C0000022C3FD0032C02D0432C57D14BE03C4820
:104C10000022825650003F4A115A3A480068FBF77A
:104C2000BBFA06460A21FBF7B7FAC8B23649087044
:104C300033480021415648003649085A324909781C
:104C4000484330490968081A2E4908602E490978F6
:104C5000491CC9B22C4A117008460A21FBF79CFA7C
:104C6000C8B2294908702648002141564800294900
:104C7000085A2549097848432249096840182149BA
:104C800008601BE01E480078401C40B21C490870B8
:104C900000200856C117890F091889108900411A88
:104CA000174A11700AE01748008882B200211320C9
:104CB000FEF7F0FE00201149087000BF00BF114848
:104CC000006801210903884202DD00200D490860C7
:104CD0000C480068002803DA012000030949086035
:104CE0000A230422694607480068FDF7B5FF04213E
:104CF0006846FDF737FC2846F8BD00003201002069
:104D0000390100203401002038010020314C454891
:104D100000000000AE610000F8B500250024FDF79A
:104D200021FF044657480078002826D156490870CC
:104D300001211320FDF7BEFC544908600A215348A5
:104D40000068FBF729FAC8B2514908700020FDF746
:104D50006DFC022C02D0032C06D101E0022503E0F9
:104D600001204849087000BF00BF042149A0FDF799
:104D7000F9FB0020FDF74CFC81E043490A7808214B
:104D800011410846FDF752FC022C3FD0032C02D003
:104D9000432C57D14BE03C480022825650003F4AFA
:104DA000115A3A480068FBF7F7F906460A21FBF763
:104DB000F3F9C8B23649087033480021415648001B
:104DC0003649085A32490978484330490968081A6F
:104DD0002E4908602E490978491CC9B22C4A117025
:104DE00008460A21FBF7D8F9C8B2294908702648B5
:104DF0000021415648002949085A25490978484365
:104E0000224909684018214908601BE01E480078C3
:104E1000401C40B21C49087000200856C117890F79
:104E2000091889108900411A174A11700AE01748B9
:104E3000008882B201211320FEF72CFE00201149C8
:104E4000087000BF00BF11480068012109038842B3
:104E500002DD00200D4908600C480068002803DAD4
:104E600001200003094908600A2304226946074813
:104E70000068FDF7F1FE04216846FDF773FB284644
:104E8000F8BD00003A010020410100203C01002053
:104E900040010020324C454800000000AE61000097
:104EA000F8B500250024FDF75DFE0446564800785D
:104EB000002826D15549087000210D20FDF7FAFB86
:104EC000534908600A2152480068FBF765F9C8B2E7
:104ED000504908700020FDF7A9FB022C02D0032CDA
:104EE00006D101E0022503E001204749087000BF18
:104EF00000BF042148A0FDF735FB0020FDF788FB2B
:104F00007FE042490A78082111410846FDF78EFBEF
:104F1000022C3FD0032C02D0432C57D14BE03B480E
:104F20000022825650003E4A115A39480068FBF769
:104F300033F906460A21FBF72FF9C8B23549087044
:104F400032480021415648003549085A314909780C
:104F500048432F490968081A2D4908602D490978E6
:104F6000491CC9B22B4A117008460A21FBF714F9F3
:104F7000C8B22849087025480021415648002849F0
:104F8000085A2449097848432149096840182049AA
:104F900008601BE01D480078401C40B21B490870A7
:104FA00000200856C117890F091889108900411A75
:104FB000164A11700AE01648008882B200210D20BE
:104FC000FEF768FD00201049087000BF00BF1048C0
:104FD00000681449884202DD00200D4908600C4831
:104FE0000068002802DA0F48094908600A230422F1
:104FF000694607480068FDF72FFE04216846FDF763
:10500000B1FA2846F8BD0000420100204901002005
:105010004401002048010020314C445400000000AD
:10502000AE610000E7030000F8B500250024FDF79D
:1050300099FD044656480078002826D15549087045
:1050400001210D20FDF736FB534908600A21524823
:105050000068FBF7A1F8C8B2504908700020FDF7BE
:10506000E5FA022C02D0032C06D101E0022503E070
:1050700001204749087000BF00BF042148A0FDF788
:1050800071FA0020FDF7C4FA7FE042490A7808214E
:1050900011410846FDF7CAFA022C3FD0032C02D07A
:1050A000432C57D14BE03B480022825650003E4AE9
:1050B000115A39480068FBF76FF806460A21FBF7DA
:1050C0006BF8C8B235490870324800214156480093
:1050D0003549085A3149097848432F490968081A5F
:1050E0002D4908602D490978491CC9B22B4A117015
:1050F00008460A21FBF750F8C8B22849087025482D
:105100000021415648002849085A24490978484353
:10511000214909684018204908601BE01D480078B3
:10512000401C40B21B49087000200856C117890F67
:10513000091889108900411A164A11700AE01648A8
:10514000008882B201210D20FEF7A4FC0020104946
:10515000087000BF00BF104800681449884202DD93
:1051600000200D4908600C480068002802DA0F484A
:10517000094908600A230422694607480068FDF7C8
:105180006BFD04216846FDF7EDF92846F8BD0000E7
:105190004A010020510100204C0100205001002054
:1051A000324C445400000000AE610000E7030000F0
:1051B000F8B500250024FDF7D5FC044657480078D3
:1051C000002826D15649087000210920FDF772FAFF
:1051D000544908600A2153480068FAF7DDFFC8B255
:1051E000514908700020FDF721FA022C02D0032C4F
:1051F00006D101E0022503E001204849087000BF04
:1052000000BF042149A0FDF7ADF90020FDF700FA29
:1052100081E043490A78082111410846FDF706FA62
:10522000022C3FD0032C02D0432C57D14BE03C48FA
:105230000022825650003F4A115A3A480068FAF755
:10524000ABFF06460A21FAF7A7FFC8B23649087035
:1052500033480021415648003649085A32490978F6
:10526000484330490968081A2E4908602E490978D0
:10527000491CC9B22C4A117008460A21FAF78CFF62
:10528000C8B22949087026480021415648002949DA
:10529000085A254909784843224909684018214994
:1052A00008601BE01E480078401C40B21C49087092
:1052B00000200856C117890F091889108900411A62
:1052C000174A11700AE01748008882B200210920AD
:1052D000FEF7E0FB00201149087000BF00BF114835
:1052E000006801210903884202DD00200D490860A1
:1052F0000C480068002803DA01200003094908600F
:105300000A230422694607480068FDF7A5FC04212A
:105310006846FDF727F92846F8BD00000201002085
:105320000901002004010020080100203148324C0E
:1053300000000000AE610000F8B500250024FDF774
:1053400011FC044657480078002826D156490870B9
:1053500001210920FDF7AEF9544908600A2153489C
:105360000068FAF719FFC8B2514908700020FDF72C
:105370005DF9022C02D0032C06D101E0022503E0E6
:1053800001204849087000BF00BF042149A0FDF773
:10539000E9F80020FDF73CF981E043490A7808214B
:1053A00011410846FDF742F9022C3FD0032C02D0F0
:1053B000432C57D14BE03C480022825650003F4AD4
:1053C000115A3A480068FAF7E7FE06460A21FAF74A
:1053D000E3FEC8B236490870334800214156480000
:1053E0003649085A32490978484330490968081A49
:1053F0002E4908602E490978491CC9B22C4A1170FF
:1054000008460A21FAF7C8FEC8B22949087026489A
:105410000021415648002949085A2549097848433E
:10542000224909684018214908601BE01E4800789D
:10543000401C40B21C49087000200856C117890F53
:10544000091889108900411A174A11700AE0174893
:10545000008882B201210920FEF71CFB00201149BF
:10546000087000BF00BF114800680121090388428D
:1054700002DD00200D4908600C480068002803DAAE
:1054800001200003094908600A23042269460748ED
:105490000068FDF7E1FB04216846FDF763F8284644
:1054A000F8BD00000A010020110100200C010020BD
:1054B000100100203248324C00000000AE610000B4
:1054C000F8B500250024FDF74DFB0446564800784A
:1054D000002826D15549087000210F20FDF7EAF871
:1054E000534908600A2152480068FAF755FEC8B2CD
:1054F000504908700020FDF799F8022C02D0032CC7
:1055000006D101E0022503E001204749087000BFF1
:1055100000BF042148A0FDF725F80020FDF778F82A
:105520007FE042490A78082111410846FDF77EF8DC
:10553000022C3FD0032C02D0432C57D14BE03B48E8
:105540000022825650003E4A115A39480068FAF744
:1055500023FE06460A21FAF71FFEC8B23549087035
:1055600032480021415648003549085A31490978E6
:1055700048432F490968081A2D4908602D490978C0
:10558000491CC9B22B4A117008460A21FAF704FED9
:10559000C8B22849087025480021415648002849CA
:1055A000085A244909784843214909684018204984
:1055B00008601BE01D480078401C40B21B49087081
:1055C00000200856C117890F091889108900411A4F
:1055D000164A11700AE01648008882B200210F2096
:1055E000FEF758FA00201049087000BF00BF1048AD
:1055F00000681449884202DD00200D4908600C480B
:105600000068002802DA0F48094908600A230422CA
:10561000694607480068FDF71FFB04216846FCF750
:10562000A1FF2846F8BD00005201002059010020CA
:105630005401002058010020314C5054000000005B
:10564000AE610000E7030000F8B500250024FDF777
:1056500089FA044656480078002826D15549087032
:1056600001210F20FDF726F8534908600A2152480E
:105670000068FAF791FDC8B2504908700020FCF7A5
:10568000D5FF022C02D0032C06D101E0022503E055
:1056900001204749087000BF00BF042148A0FCF763
:1056A00061FF0020FCF7B4FF7FE042490A7808213F
:1056B00011410846FCF7BAFF022C3FD0032C02D060
:1056C000432C57D14BE03B480022825650003E4AC3
:1056D000115A39480068FAF75FFD06460A21FAF7C1
:1056E0005BFDC8B235490870324800214156480078
:1056F0003549085A3149097848432F490968081A39
:105700002D4908602D490978491CC9B22B4A1170EE
:1057100008460A21FAF740FDC8B228490870254812
:105720000021415648002849085A2449097848432D
:10573000214909684018204908601BE01D4800788D
:10574000401C40B21B49087000200856C117890F41
:10575000091889108900411A164A11700AE0164882
:10576000008882B201210F20FEF794F90020104931
:10577000087000BF00BF104800681449884202DD6D
:1057800000200D4908600C480068002802DA0F4824
:10579000094908600A230422694607480068FDF7A2
:1057A0005BFA04216846FCF7DDFE2846F8BD0000E0
:1057B0005A010020610100205C01002060010020EE
:1057C000324C505400000000AE610000E7030000BE
:1057D000F8B500250024FDF7C5F9044657480078C0
:1057E000002826D15649087000210B20FCF762FFE3
:1057F000544908600A2153480068FAF7CDFCC8B242
:10580000514908700020FCF711FF022C02D0032C34
:1058100006D101E0022503E001204849087000BFDD
:1058200000BF042149A0FCF79DFE0020FCF7F0FE1C
:1058300081E043490A78082111410846FCF7F6FE49
:10584000022C3FD0032C02D0432C57D14BE03C48D4
:105850000022825650003F4A115A3A480068FAF72F
:105860009BFC06460A21FAF797FCC8B23649087035
:1058700033480021415648003649085A32490978D0
:10588000484330490968081A2E4908602E490978AA
:10589000491CC9B22C4A117008460A21FAF77CFC4F
:1058A000C8B22949087026480021415648002949B4
:1058B000085A25490978484322490968401821496E
:1058C00008601BE01E480078401C40B21C4908706C
:1058D00000200856C117890F091889108900411A3C
:1058E000174A11700AE01748008882B200210B2085
:1058F000FEF7D0F800201149087000BF00BF114822
:10590000006801210903884202DD00200D4908607A
:105910000C480068002803DA0120000309490860E8
:105920000A230422694607480068FDF795F9042117
:105930006846FCF717FE2846F8BD0000120100205B
:1059400019010020140100201801002031483248BC
:1059500000000000AE610000F8B500250024FDF74E
:1059600001F9044657480078002826D156490870A6
:1059700001210B20FCF79EFE544908600A21534880
:105980000068FAF709FCC8B2514908700020FCF71A
:105990004DFE022C02D0032C06D101E0022503E0CB
:1059A00001204849087000BF00BF042149A0FCF74E
:1059B000D9FD0020FCF72CFE81E043490A7808213C
:1059C00011410846FCF732FE022C3FD0032C02D0D6
:1059D000432C57D14BE03C480022825650003F4AAE
:1059E000115A3A480068FAF7D7FB06460A21FAF737
:1059F000D3FBC8B2364908703348002141564800ED
:105A00003649085A32490978484330490968081A22
:105A10002E4908602E490978491CC9B22C4A1170D8
:105A200008460A21FAF7B8FBC8B229490870264887
:105A30000021415648002949085A25490978484318
:105A4000224909684018214908601BE01E48007877
:105A5000401C40B21C49087000200856C117890F2D
:105A6000091889108900411A174A11700AE017486D
:105A7000008882B201210B20FEF70CF800201149AA
:105A8000087000BF00BF1148006801210903884267
:105A900002DD00200D4908600C480068002803DA88
:105AA00001200003094908600A23042269460748C7
:105AB0000068FDF7D1F804216846FCF753FD28463D
:105AC000F8BD00001A010020210100201C01002067
:105AD000200100203248324800000000AE61000082
