:020000040000FA
:100000008805002049010000550100003914000056
:1000100000000000000000000000000000000000E0
:100020000000000000000000000000005901000076
:1000300000000000000000005B010000ED1B00005C
:100040005F0100005F0100005F0100005F01000030
:100050005F0100005F0100005F010000191D00004A
:100060005F0100005F0100005F0100005F01000010
:100070005F0100005F0100005F0100005F01000000
:100080005F010000B11E00005F0100005F01000081
:100090005F0100005F0100005F0100005F010000E0
:1000A0005F0100005F0100005F0100005F010000D0
:1000B0005F0100005F0100005F0100005F010000C0
:1000C00000F002F800F030F80CA030C8083824180E
:1000D0002D18A246671EAB4654465D46AC4201D180
:1000E00000F022F87E460F3E0FCCB6460126334282
:1000F00000D0FB1AA246AB463343184738630000D2
:10010000586300000023002400250026103A01D384
:1001100078C1FBD8520700D330C100D50B607047BF
:100120001FB51FBD10B510BD00F0E1F91146FFF776
:10013000F7FF02F0C5FE00F0F9F903B4FFF7F2FF94
:1001400003BC00F0FFF900000848804708488047DA
:1001500008480047FEE7FEE7FEE7FEE7FEE7FEE7AA
:1001600005480649044A064B70470000D51C0000AC
:10017000BD1C0000C100000088030020880500208D
:1001800088030020002203098B422CD3030A8B42F0
:1001900011D300239C464EE003460B433CD400227F
:1001A00043088B4231D303098B421CD3030A8B4291
:1001B00001D394463FE0C3098B4201D3CB01C01A5F
:1001C000524183098B4201D38B01C01A524143092A
:1001D0008B4201D34B01C01A524103098B4201D318
:1001E0000B01C01A5241C3088B4201D3CB00C01A85
:1001F000524183088B4201D38B00C01A52414308FD
:100200008B4201D34B00C01A5241411A00D2014621
:100210005241104670475DE0CA0F00D049420310BA
:1002200000D34042534000229C4603098B422DD309
:10023000030A8B4212D3FC22890112BA030A8B42B1
:100240000CD3890192118B4208D3890192118B4200
:1002500004D389013AD0921100E08909C3098B4285
:1002600001D3CB01C01A524183098B4201D38B01C8
:10027000C01A524143098B4201D34B01C01A52416B
:1002800003098B4201D30B01C01A5241C3088B42B0
:1002900001D3CB00C01A524183088B4201D38B009B
:1002A000C01A5241D9D243088B4201D34B00C01A25
:1002B0005241411A00D20146634652415B1010463A
:1002C00001D34042002B00D54942704763465B1082
:1002D00000D3404201B50020C046C04602BD704771
:1002E00070477047F0B5FF252D04C609C209FF27E6
:1002F00004462E400137CB093E4348402A402B405C
:100300000746002A6BD0002B69D0AA4267D0AB42C7
:1003100065D0002800DA32460125ED0529432C433B
:1003200009022002090AD21A4B0C7F24E31A434C1B
:10033000000A7C44E35C7D242404121914145B003D
:10034000A218884201D3521C00E0400049420C46EA
:100350005C4324115C43DB016415E318040A5C432D
:10036000C502200D0C4644436419250A5D4323034E
:10037000EC0C0D46654300030019EB184C42A342F8
:1003800001D35B18401CD4052018002B07D05B005C
:10039000C91804D3401C002901D1400840003F2166
:1003A00089048A4209D3002A08DC1106090F04D007
:1003B000032149074018C00FC007F0BD01224100CA
:1003C000120689187F2252069142F6D2052149076A
:1003D000C84201D59010F0BDFF20C005F0BD002F30
:1003E00000DA32461648AA4207D2AB4205D21902B9
:1003F000090E17D0F80FC007F0BDFF2563002D06CA
:10040000AB42F9D84900A942F6D8AB4201D1A94282
:10041000F2D0A94201D1002101E061004908D005D4
:100420000843F0BD1102090EFBD0FF200243D005A6
:10043000F0BD0A460146104654E70000BE600000C9
:100440000000C07F10B501469E240002CA15A30714
:10045000002A02D01843002A04DBA21A002A0CDD6D
:10046000D04010BD1206120E01D140004008A21A61
:1004700003D4D04040420028F3DDFF22480012069A
:10048000904201D9002010BDC817C043584010BD8C
:100490001F22030C02D10F2200041CD0030E01D135
:1004A0000002083A030F01D10001121F830F01D18E
:1004B0008000921E002801DB4000521ED205511818
:1004C000021251181922904004D3491C002801D16E
:1004D0004908490008467047C10FC90700D040428B
:1004E000012292071143D3E701218907D0E775461E
:1004F00000F024F8AE46050069465346C008C00027
:10050000854618B020B5FFF72BFE60BC00274908D0
:10051000B6460026C0C5C0C5C0C5C0C5C0C5C0C59B
:10052000C0C5C0C5403D49008D46704710B5044662
:10053000C046C0462046FFF700FE10BD0048704789
:100540002803002001491820ABBEFEE72600020068
:10055000704730B58C180278401C13071B0F01D16F
:100560000378401C120906D10278401C03E005788C
:10057000401C0D70491C5B1EF9D101E00B70491C39
:10058000521EFBD1A142E6D3002030BD0EB50020A3
:10059000009001900E20029069460A4800F0F1FA9E
:1005A000002802D008A000F013F80021054800F050
:1005B000CEFA0321122001F05BFA122001F012FAA8
:1005C0000EBD000000300040204144430000000008
:1005D00004460F2002F02AF80421204601F0C2FF51
:1005E00000BFFEE710B505F013FB00BF10BD000013
:1005F0000421254AD161D1610821D1611021D16145
:100600002021D1614021D1618021D16120211F4A67
:10061000D1611021D161C107C90F002901D010217A
:10062000116202210140002902D02021174A1162E3
:1006300004210140002902D08021134A11620821BF
:100640000140002902D040210F4A116210210140CF
:10065000002902D020210C4A1162202101400029EA
:1006600002D01021084A116240210140002902D025
:100670000821054A116280210140002902D004218D
:10068000014A11627047000000140040001300404E
:1006900010B544480078002815D0434801880088E8
:1006A000401E414A1080002914D14048007800289B
:1006B00001D1012000E000203C490870FF20F53006
:1006C0003949088006E0002038490870FF20F530DD
:1006D0003549088002203649C8610120C8611020D0
:1006E0003449C8610820C8613349344A1278885CAB
:1006F000FFF77EFF2D480078002813D02F4801789F
:100700000120884027490978084000280AD00220A3
:100710002749C8610120C86110202649C861082006
:10072000C86130E002202249C8610120C861102060
:100730002049C8610820C86120480078002806D0F8
:10074000012808D002280AD0032810D10BE0082085
:100750001849086216E010201649086212E00120CC
:10076000134908620EE00220114908620AE00220E3
:100770000F4908620120086210200E490862082013
:10078000086200BF00BF0D480078401C0B4908708C
:100790000B48017809480078FFF7FEFCC8B207490A
:1007A000087010BDED010020F0010020F2010020D2
:1007B0000013004000120040E9010020EE0100207B
:1007C000E801002010B501221146D24800F04AFA93
:1007D00000220121CF4800F073FA0221CD4800F039
:1007E00011FA01220021CB4800F03CFA0022114608
:1007F000C84800F065FA0121C64800F003FA01225A
:100800000421C54800F02EFA00220421C24800F05D
:1008100057FA1021C04800F0F5F901220321BE4823
:1008200000F020FA00220321BB4800F049FA082119
:10083000B94800F0E7F901220221B84800F012FAA5
:1008400000220221B54800F03BFA0421B34800F031
:10085000D9F901220321B14800F004FA0022032152
:10086000AE4800F02DFA0821AC4800F0CBF9012287
:100870000421AA4800F0F6F900220421A74800F05C
:100880001FFA1021A54800F0BDF901220521A34857
:1008900000F0E8F900220521A04800F011FA20211B
:1008A0009E4800F0AFF9012206219C4800F0DAF9D9
:1008B00000220621994800F003FA4021974800F0F1
:1008C000A1F901220721954800F0CCF90022072167
:1008D000924800F0F5F98021904800F093F9012248
:1008E00005218C4800F0BEF900220521894800F05E
:1008F000E7F92021874800F085F901220421854885
:1009000000F0B0F900220421824800F0D9F910214A
:10091000804800F077F902220021804800F0A2F917
:10092000012200217D4800F07DF9022206217C4849
:1009300000F098F902220621794800F073F90222AA
:100940000721774800F08EF902220721744800F051
:1009500069F901220221734800F084F90022022182
:10096000704800F0ADF904216E4800F04BF9012207
:1009700003216C4800F076F900220321694800F059
:100980009FF90821674800F03DF9012207216548D9
:1009900000F068F900220721624800F091F98021F7
:1009A000604800F02FF9012200215B4800F05AF95D
:1009B00000221146584800F083F90121564800F002
:1009C00021F902220421564800F04CF901220421A9
:1009D000534800F027F901220321514800F042F961
:1009E00008214F4800F00EF9012203214E4800F083
:1009F00039F9002203214C4800F062F908214A48E5
:100A000000F000F901220421474800F02BF90022F0
:100A10000421454800F054F91021434800F0F2F851
:100A200001220021404800F01DF9002211463E48F5
:100A300000F046F901213C4800F0E4F8012211469B
:100A4000394800F00FF900220121374800F038F949
:100A50000221354800F0D6F802220121314800F089
:100A600001F9032201212F4800F0DCF800220121C6
:100A70002C4800F025F9022200212A4800F0F2F863
:100A800003220021274800F0CDF800221146254816
:100A900000F016F9002201211F4800F0E3F80122BE
:100AA00011461D4800F00CF9002202211A4800F0FE
:100AB000D9F801220221184800F002F9022203218C
:100AC000144800F0CFF801220321124800F0AAF8E0
:100AD000022211460F4800F0C5F8012202210D48FC
:100AE00000F0A0F8012206210E4800F0BBF8002219
:100AF00006210C4800F0E4F840210A4800F082F892
:100B000001220421064800F0ADF81021044800F04D
:100B100079F810BD0013004000120040001400409E
:100B2000001500400011004000100040024610680F
:100B300003091B010807000F0343136000207047DF
:100B400001460A68102002430A600020704710B571
:100B500002460B46116820240846A0430146002B9C
:100B600001D0202001431160002010BD01464868DB
:100B700082B21005000D704701460868102210402F
:100B8000704710B50246002A01D1012010BD012096
:100B90008007C06A01242405A043A402E062204625
:100BA000406BA412A043A40260632046C06AA41252
:100BB0002043A402E0622046406BA4122043A4021A
:100BC0006063E013106008794007800CE413204351
:100BD0000C78E407640D2043034610331360087A51
:100BE000C006C00E90600020D0E70146002901D168
:100BF000012070470868FF2201321043086000207E
:100C0000F7E7000000BF1522054B1A6351221A6353
:100C100000BF016200BF00221A6300BF70470000DE
:100C2000C01F004070B5144600BF15250C4E35633B
:100C30005125356300BF08290BDA8D062A0E83681B
:100C40000F2595401E46AE433346254695402B431F
:100C5000836000BF0025024E356300BF70BD0000F9
:100C6000C01F0040F0B503461546032D00D10122F8
:100C70004E06340E00BF1526104F3E6351263E63CC
:100C800000BF18680326A6400746B74338461646F5
:100C9000A64030431860586801268E400746B74387
:100CA0003846032D02D101268E403043586000BFE4
:100CB0000026024F3E6300BFF0BD0000C01F004091
:100CC00070B50B465D062C0E00BF15250A4E356328
:100CD0005125356300BF01690325A5400E46AE438B
:100CE00031461546A5402943016100BF0025024E4B
:100CF000356300BF70BD0000C01F004001461048B2
:100D000081420CD1C004C06A10229043CA04D06250
:100D1000C804406B10229043CA0450630EE0094897
:100D200081420BD18005C06A202290438A05D0629F
:100D30008805406B202290438A055063002070474D
:100D4000004800400049004070B504460D462B485D
:100D5000844218D1C004C06A102188438906C86241
:100D60000846406B10218843890648630846C06ADC
:100D7000102108438906C8620846406B10210843C9
:100D8000890648631AE01E48844217D18005C06A6C
:100D9000202188434906C8620846406B20218843C9
:100DA000490648630846C06A202108434906C862CC
:100DB0000846406B20210843490648638020206094
:100DC000206820210843206029460E480068FFF76C
:100DD000D9F98008401E4008A061294609480068EA
:100DE000FFF7D0F98008401E4008E06101206061F3
:100DF0002068082108432060002070BD00480040A2
:100E0000004900400400002001218907C8617047A3
:100E10000146064A1068F02302469A4310460A012A
:100E20001043034A0243014B1A60704740000040E0
:100E3000000007A50146074A10680F231B0202465F
:100E40009A4310460A021043034A0243014B1A60B8
:100E50007047000040000040000007A5012905D1AF
:100E60008A07926902438B079A6106E00122920782
:100E70009269824301239B079A61704701460122D0
:100E80009207906B131202469A4310468A0510434C
:100E90001A0290637047014601229207906B531328
:100EA00002469A4310464A0410435A03906370471F
:100EB000014601229207906B4008400002460A4317
:100EC0001046012292079063704701460868082285
:100ED00010430860002070470246012904D11068C1
:100EE000CB031843106004E010680123DB03984330
:100EF00010600020704710B503460C46002C02D04D
:100F0000012C04D101E0202101E0102100BF00BF2D
:100F1000012A03D118680843186002E01868884362
:100F20001860002010BD0146086808221040002803
:100F300001D0012070470020FCE70000F8B503460F
:100F40000C466A48834218D18005806A9F13B843D3
:100F50009F05B8629805006B9F13B8439F053863DF
:100F60009805806A9F1338439F05B8629805006B07
:100F70009F1338439F05386357E05D48834219D17A
:100F80004005806A01277F04B8435F05B8625805B1
:100F9000006B7F13B8435F0538635805806A7F1381
:100FA00038435F05B8625805006B7F1338435F050F
:100FB00038633AE04F4883421AD101208007806AA3
:100FC0000127BF04B8433F03B8623846006B3F13A4
:100FD000B8433F0338633846806A3F1338433F03C2
:100FE000B8623846006B3F1338433F0338631CE058
:100FF0004148834219D101208007806A0127FF04FC
:10100000B843FF02B8623846006BFF12B843FF02D4
:1010100038633846806AFF123843FF02B8623846A8
:10102000006BFF123843FF023863002C19D11646BB
:10103000F0798003270338433246B7793F023843BB
:1010400081B2F079012803D1307AC002084381B21D
:101050001960B088401E0005000D18613088586086
:101060003EE0032C01D0022C1BD11546E879800309
:10107000270338432A46AF793F02384381B2E879E3
:10108000012803D1287AC002084381B21960A888D8
:10109000401E0005000D1861288858606888986017
:1010A0001EE0012C1CD10092009A50798003270386
:1010B00038431779BF01384381B2009A507901282B
:1010C00004D100988079C002084381B21960009869
:1010D0004088401E0005000D186100980088586087
:1010E00018680127384318600020F8BD002100402F
:1010F000002200400023004000270040014601205C
:101100008007806A01221206904392019062104685
:10111000006B92119043920110631046806A921105
:101120001043920190621046006B9211104392019D
:1011300010630020086048608860C86088610862A9
:1011400048628862C8620863486388637047000029
:1011500070B5044610461843054E30430546012934
:1011600002D13F20000205432562002070BD00002F
:1011700000006CE0024688B2906000207047024692
:1011800088B250600020704702460120C0038142AF
:1011900004D110680B461843106004E01068012366
:1011A000DB03984310600020704730B503460024ED
:1011B000002906D0012906D0022906D0032908D12A
:1011C00005E0042405E0082403E0102401E02024C5
:1011D00000BF00BF012A03D118682043186004E053
:1011E00018683C252540A8431860002030BD024601
:1011F000012904D150684B021843506004E0506844
:1012000001235B02984350600020704770B505468B
:101210000C465748854219D101208007C06AA9159C
:1012200088438905C8620846406B8915884389054B
:1012300048630846C06A891508438905C86208469C
:10124000406B89150843890548631AE0494885427F
:1012500017D18005C06A691588434905C8620846E8
:10126000406B49158843490548630846C06A4915DB
:1012700008434905C8620846406B491508434905BB
:101280004863012040026860207900281ED120793F
:101290008007000C617A8907890C0843217A490785
:1012A000090D0843C61C2E60A07AC007400F01211B
:1012B0004902084306466E602F48006800092F491E
:1012C00008602846216800F06BF84EE0207901287C
:1012D0001ED120798007000C617A8907890C0843A8
:1012E000217A4907090D0843C61C2E60A07AC00761
:1012F000400F01214902084306466E601E480068FF
:1013000040081E4908602846216800F049F82CE092
:101310002079032829D120798007000C217A4907F8
:10132000090D08436179C907C90D0843A179C907A7
:10133000090E0843E179C907490E0843C61C2E600F
:1013400068680821884368600B48006840080B49BA
:1013500008602846216800F023F8284600F010F8BD
:101360000646284600F00CF80646002070BD000036
:10137000003800400039004000000020F401002047
:1013800001464869C0B270470146002008714B20F1
:10139000400208600320087200204872887270477B
:1013A000F8B504460D460548066800953046009994
:1013B000FEF7E8FE471EB8B22061F8BDF401002038
:1013C00007B5002101980002000A0D4A90600298BA
:1013D0000002000A1061684641880078012805D1A2
:1013E0003F22920208469043014602E025208002F7
:1013F000014304480843024A106000200EBD00006B
:10140000001A0040A001695A02460948006881B2EA
:10141000FF20A1300143012A04D13F231B010846CC
:101420009843014603480843014B18600020704769
:10143000001A00400000695A00BFFEE710B50648D8
:10144000FFF75CFC05490448FFF77EFC002802D04A
:1014500003A0FFF7BDF810BD0048004050C30000D6
:10146000303030350000000070B504460D4613469C
:10147000002200BF07E01046521CFF26F536B0429E
:1014800001D9012070BD674840680426304000281B
:10149000F1D16448006801263043624E3060A020DC
:1014A0003061FF20706000220EE05E480068102668
:1014B0003040002800D008E01046521CFF26F536C8
:1014C000B04201D90220DDE7EFE700BF5548406890
:1014D00087280BD05348006802263043514E3060B5
:1014E000FF207060882030600320CBE74D48046106
:1014F000FF204C4E706000220EE04A480068102623
:101500003040002800D008E01046521CFF26F53677
:10151000B04201D90420B5E7EFE700BF4148406879
:1015200047280BD03F480068022630433D4E3060CC
:10153000FF207060882030600520A3E78920394EA5
:101540003060FF207060A120306100220EE035483D
:10155000006810263040002800D008E01046521CD9
:10156000FF26F536B04201D906208BE7EFE700BF32
:101570002C48406885280BD02A4800680226304352
:10158000284E3060FF20706088203060072079E7A7
:101590008820244E3060002136E0581E884202D157
:1015A0008020204E306000201E4E3061FF20706091
:1015B00000220EE01B48006810263040002800D0B2
:1015C00008E01046521CFF26F536B04201D908202B
:1015D00058E7EFE700BF1348406844280FD0114890
:1015E000406845280BD00F480068022630430D4E56
:1015F0003060FF20706088203060092042E7094891
:1016000000696854481CC1B29942C6DB05480068AD
:1016100002263043034E3060FF2070608820306027
:1016200000202FE70048004070B503460C461546E1
:10163000002200BF07E01046521CFF26F536B042DC
:1016400001D9012070BD4A48406804263040002876
:10165000F1D14748006801263043454E3060A02054
:101660003061FF20706000220EE0414800681026C3
:101670003040002800D008E01046521CFF26F53606
:10168000B04201D90020DDE7EFE700BF38484068ED
:1016900087280BD03648006802263043344E30602D
:1016A000FF207060882030600220CBE73048036163
:1016B000FF202F4E706000220EE02D48006810269B
:1016C0003040002800D008E01046521CFF26F536B6
:1016D000B04201D90320B5E7EFE700BF24484068D6
:1016E00047280BD02248006802263043204E306045
:1016F000FF207060882030600420A3E7002129E0EB
:10170000605C1B4E3061FF20706000220EE01848C4
:10171000006810263040002800D008E01046521C17
:10172000FF26F536B04201D905208BE7EFE700BF71
:101730000F48406847280BD00D4800680226304308
:101740000B4E3060FF20706088203060062079E703
:10175000481CC1B2A942D3DB0548006802263043C9
:10176000034E3060FF20706088203060002069E701
:101770000048004010B500F003F800F03BFA10BD3F
:1017800001208007806A3F2109020843012189075F
:1017900088620846006B3F2109020843012189073E
:1017A000086300BF15206D4908635120086300BF1E
:1017B0008007806A89150843890588620846006B9E
:1017C0008915084389050863FF2041306449086092
:1017D0000020486088600861886262485F49C039BB
:1017E0000860FF20486060480860FF208860002093
:1017F000086001208007806A49150843490588620E
:101800000846006B4915084349050863574858497D
:10181000086000204860574888600020086188629E
:1018200050484E49C0390860FF2048604E48086063
:10183000FF2088600020086001208007806A091569
:101840000843090588620846006B09150843090525
:101850000863494849490860002048604848886052
:101860000020086188623F483C49C0390860FF2079
:1018700048603D480860FF20886000200860012023
:101880008007806AC9140843C90488620846006B4F
:10189000C9140843C90408633748A03839490860A7
:1018A00000204860384888600020086188622D4820
:1018B0002A49C0390860FF2048602B480860FF2093
:1018C00088600020086001208007806A891408432E
:1018D000890488620846006B8914084389040863F8
:1018E0002248801D294908600120486028488860F6
:1018F0000020086188621B481849C0390860FF2031
:10190000486019480860FF208860002008600120B6
:101910008007806A49140843490488620846006BBE
:101920004914084349040863052000021949086066
:10193000002048608860086188620A480749C03909
:101940000860FF20486008480860FF208860002089
:10195000086000BF0149086300BF7047C01F004016
:101960000010004002070000000007A8A0AA000025
:101970000011004000142233AA0A000000120040A7
:10198000444404000013004044004400001400409C
:10199000014444440015004005490020085605490B
:1019A00000228A56904201D1012070470020FCE7B6
:1019B000840100208501002010B50A21074A00207B
:1019C0001056401CFEF7E8FBCCB2054800214156FA
:1019D0008C4201D1012010BD0020FCE785010020D0
:1019E00084010020C206D20E01219140014A1160FB
:1019F0007047000000E100E010B5002819DA1A4A2B
:101A000003071B0F083B9B089B00D2588307DC0E83
:101A1000FF23A3409A438B071B0E8407E40EA340C9
:101A20001A43114B0407240F083CA408A4001A51C0
:101A300018E00E4A03231B02D21883089B00D258D9
:101A40008307DC0EFF23A3409A438B071B0E8407FA
:101A5000E40EA3401A43054B032424021B198408F7
:101A6000A4001A5110BD00001CED00E000E100E0F0
:101A700010B5002819DA1A4A03071B0F083B9B0808
:101A80009B00D2588307DC0EFF23A3409A438B07A9
:101A90001B0E8407E40EA3401A43114B0407240FC6
:101AA000083CA408A4001A5118E00E4A03231B02A4
:101AB000D21883089B00D2588307DC0EFF23A34073
:101AC0009A438B071B0E8407E40EA3401A43054B71
:101AD000032424021B198408A4001A5110BD00001D
:101AE0001CED00E000E100E070B503460C46164630
:101AF0009807800F002803D1A007800F002801D08D
:101B0000012070BD354600F013FA81201C49486061
:101B1000282048601B4808630020486048605A201D
:101B20004860A52048600846806817490843144962
:101B3000886000BF00BF00BF00BF00BF002204E0FC
:101B4000286818601B1D2D1D121DA242F8D300BF6E
:101B500000BF00BF00BF0A488068042188430849CD
:101B600088600020886048604860812048602820A4
:101B700048600448086300204860486000BFC0E730
:101B800000010040000358780400800010B513489D
:101B90000088002804DD11480088401E0F49088095
:101BA0000F480088002804DD0D480088401E0C49BD
:101BB00008800C480088002804DD0A480088401E80
:101BC0000849088008480088002804DD0648008885
:101BD000401E0549088000F01DFC10BD08000020D3
:101BE0000A0000200C0000200E00002010B5FFF7B6
:101BF000CDFF10BD1CB500200190274880688021D2
:101C00008843254988600820FFF702F922480068C8
:101C100070218843214908431F49086008464068ED
:101C2000042188431E4908431B494860032080055E
:101C3000086200BF1848006AC00FC00700900198F2
:101C4000401C01900198401C002804D00121C907C4
:101C500000988842EED10198401C002803D007204C
:101C600040050D4908620C484068800880000C4916
:101C70000843801C084948600A480B4908600B4922
:101C800008600B480449403108610A48486188618E
:101C9000C861094808621CBD40000040000007A55B
:101CA00000000A570048E80100000020040000205E
:101CB000010301020102010201020100024803497D
:101CC00008600349086070470048E80100000020F0
:101CD0000400002072B609480949086009480A4909
:101CE00008600A4908608120094948602820486046
:101CF000084808630020486070470000A095695AB2
:101D0000001A004020A1070000000020040000206D
:101D1000000100400003587810B500F001F810BD34
:101D200010B51548FFF7FFF8012823D113480078B4
:101D3000401C12490870084600780A2804DB03F0AA
:101D400051FF00200D49087003F040FF0C48007857
:101D5000002803D010200B49086202E01020094936
:101D6000C8610748007801214840054908700248C9
:101D7000FFF7ABF810BD0000002100401400002068
:101D800015000020001500400EB50120FFF776F881
:101D900000216846C17120218180642101800121D8
:101DA00081716A4600210C48FFF7C8F8002802D06C
:101DB0000AA0FEF70DFC012200210748FFF79BF85F
:101DC00003210720FFF754FE0720FFF70BFE012138
:101DD0000148FFF781F80EBD00210040303030335C
:101DE0000000000010B50120FFF755F80C48FFF780
:101DF00085F9002802D00BA0FEF7EAFB0B49084842
:101E0000FFF7BDF90648406841080548FFF7B2F9F9
:101E10000123DB03002201210148FFF799F910BDDE
:101E2000002400403030303600000000727700009F
:101E300010B50748C06820210840202806D1044872
:101E40004069C4B2204600F07FF800BF10BD00001A
:101E5000003900400EB56846FFF796FA4B20C001E6
:101E60000090032168460172002141728172694627
:101E70000C48FFF7CBF9002802D00BA0FEF7A8FB17
:101E8000012211460748FFF790F903211120FFF7BF
:101E9000EFFD1120FFF7A6FD01210248FFF7A7F98A
:101EA0000EBD00000039004030303034000000002A
:101EB00010B5FFF7BDFF10BD0EB50820FEF7BAFF45
:101EC0000020FEF7F5FF01210820FEF7C7FFFF20E5
:101ED000FEF79AFF01216846017000214180074802
:101EE000019040000290684607C8FFF769FA002891
:101EF00002D003A0FEF76CFB0EBD0000420F0000F5
:101F0000205744540000000010B50120FFF77CFA70
:101F100010BD30B47446641E2578641CAB4204D3F3
:101F2000635D5B00E31830BC18471D46F8E700000E
:101F30006620044948609920486000204863486052
:101F4000486070470001004010B50446FFF734FDBB
:101F500000280CD10A21064A1056401CFEF71CF935
:101F600048B203490870034800228A56845410BDC1
:101F7000850100207A02002070B5044600259648AD
:101F800000780300FFF7C5FF09061C421B7C9FCAAF
:101F9000E6FB1B00012000F085FBC0B2A0420ED181
:101FA00001208D49087000208C490880401E8C4912
:101FB0000880204600F0C6F900208A490880F7E032
:101FC000894804700078042806D1022082490870EC
:101FD000204600F0B7F918E083480078062806D1BB
:101FE00002207D490870204600F0ACF90DE07E48E3
:101FF0000078032806D1022077490870204600F0B7
:10200000A1F902E0012079490870D1E07848007810
:10201000C10072480088884020437049088016201B
:1020200000F040FB022802DA00206C49088070486A
:102030000078401C6E4908700846007802281BD1C1
:102040000020087068480078042805D162490870AB
:102050000020684908800FE063480078062808D10E
:102060005D490870022064490870002061490880B9
:1020700002E001205D490870204600F063F997E016
:102080005B480078C1005B4800888840204359497C
:10209000088057480078401C554908700846007869
:1020A00002280CD150480078042805D1002008707F
:1020B00005204949087002E001204C49087020467B
:1020C00000F040F974E04A480078C100204688409A
:1020D0004449098808434349088045480078401C22
:1020E0004349087008460078022816D100203A4972
:1020F00008703F4908703B48008839490988884280
:1021000001D1012509E00820374908700020334932
:102110000880384908803349088049E03748344905
:102120000978445432480078401C31490870084608
:10213000007831490978884208DB00202C49087072
:1021400005202549087002202B490870204600F020
:10215000F9F82DE028480470002025490870264829
:102160000078142804DC08201B49087003E006E00E
:1021700002201E490870204600F0E4F818E01F48CD
:102180001B49097844541A480078401C18490870C3
:102190000846007818490978884205DB0020144970
:1021A000087005200C490870204600F0CBF800BFED
:1021B00000BF0E48007800280CD0002006490870A7
:1021C00009490870054908800A49088005490880BE
:1021D00006490870284670BDE0010020D4010020A7
:1021E000DE010020DA010020D2010020E3010020FE
:1021F000E1010020D6010020D80100209402002037
:1022000070B50646002407E060000849085A6100DE
:10221000074A5052601CC4B2192CF5DB012000F0B3
:1022200097FC054600F06AF870BD000000700000E1
:102230004802002010B511480078002804D0012879
:1022400009D0062817D10EE000F09EFC012801D12C
:102250000A49087010E001F03DF8012802D106207B
:102260000649087008E001F083FC012802D1002033
:102270000249087000E000BF00BF10BD52000020FE
:102280000948007801280DD108480078002809D1B4
:10229000401E074908803220488001200349087009
:1022A0000449088070470000210000202000002021
:1022B000F80100201E0000200A48007801280FD1F4
:1022C00009480A490880192048800948888019214E
:1022D0000648C1800120074908700220064908808D
:1022E000704700002100002072770000F8010020F4
:1022F000B93B0000200000201E00002000B502466F
:10230000034802700078002801D100F003F800BDF6
:10231000210000200020024908700249088070470F
:10232000200000201E0000200020FF210902044B95
:102330000A689A4201D1012000E0002070470000A5
:1023400055AA000001460A4800784840C2B2084831
:1023500000880012064B18805000064B185A044B98
:102360001B885840024B18801846008870470000B0
:10237000DE010020B661000070B505460E46002063
:10238000C04307490880002400BF04E0285DFFF730
:10239000D9FF601CC4B2B442F8DB0148008870BDAC
:1023A000DE01002018490A7801219140174A12885D
:1023B0001140002921D001280FD1134909780029A3
:1023C00002D0012908D103E00421114AD16103E0C0
:1023D00008210F4AD16100BF14E00B490978002998
:1023E00002D0012908D103E00421094A116203E067
:1023F0000821074A116200BF04E00821044A116263
:1024000004211162704700008A0100208801002029
:102410000011004004480068002804D00248006809
:10242000401E0149086070471000002001E000BF15
:10243000401E0028FBD1704770B504460025FFF709
:10244000ABFA00280DD10A21074A1056401CFDF7AF
:10245000A3FE48B20449087004484A57805C2070C3
:102460000125284670BD0000840100207A0200206A
:1024700003480068002801D1012070470020FCE7D4
:102480001000002030B502460B460020042B00DD72
:1024900030BD002059E0115C8024214080292DD1DD
:1024A000145C6106490E412908DB5A2906DC0C46FA
:1024B000413C284D2C5D284D2C5418E0612908DB47
:1024C0007A2906DC0C46613C244D2C5D224D2C54AF
:1024D0000DE0302908DB392906DC0C46303C204D64
:1024E0002C5D1D4D2C5402E000241B4D2C541A4C25
:1024F000245C01252C43184D2C5425E0115C412906
:1025000008DB5A2906DC0C46413C124D2C5D124D6D
:102510002C5418E0612908DB7A2906DC0C46613C62
:102520000E4D2C5D0C4D2C540DE0302908DB392963
:1025300006DC0C46303C0A4D2C5D074D2C5402E065
:102540000024054D2C5400BF401C9842A3DB00BF63
:102550009EE70000DA630000E9010020C06300008C
:10256000B663000070B502460B4600200021042B24
:1025700000DD70BD002004E000240D18204E7455CD
:10258000401C0428F8DB002036E0145C412C0ADBF8
:10259000145C5A2C07DC145C413C1A4D2C5D0D1860
:1025A000174E745527E0145C612C0ADB145C7A2CFE
:1025B00007DC145C613C144D2C5D0D18104E7455F5
:1025C00019E0145C302C0ADB145C392C07DC145C39
:1025D000303C0E4D2C5D0D18094E74550BE0145C0B
:1025E0002D2C04D102240D18054E745503E000244F
:1025F0000D18034E7455401C9842C6DB00BFB8E767
:10260000E9010020DA630000C0630000B663000047
:10261000042800DD70470449095C01221143024A85
:10262000115400BFF6E70000E901002001490870DD
:1026300070470000ED01002070B505462846FFF701
:10264000DFFD00240AE06000064A115A204600F02F
:102650004BFF0548FFF7EAFE601CC4B2192CF2DB01
:10266000012070BD480200201027000010B504466C
:102670000B48FEF765FA21460948FEF757FA084865
:10268000FEF7B3FA00E000BF0548FEF775FA102127
:1026900008401028F7D10248FEF768FA10BD000084
:1026A0000030004001464800014A105A70470000BF
:1026B00048020020024650184000014B185A70474B
:1026C00048020020014800787047000061000020A7
:1026D000F8B505460E460027002403E06000285A9E
:1026E000C719641CB442F9DB31463846FDF74AFD90
:1026F00080B2F8BDFEB506460C460027002503E073
:102700006800305AC7196D1CA542F9DB2046FDF759
:10271000EBFE01903846FDF7E7FE00900199FDF7CA
:10272000E1FDFEBD0146022903DA4A000248805A53
:1027300070470020FCE700009201002001460229BA
:1027400003DA4800024A105A70470020FCE70000F4
:102750008E01002001464800014A105E70470000CB
:102760002C000020024908780021014A11707047AE
:1027700016000020024908780021014A11707047B4
:10278000E3010020F0B589B00646002008900790CC
:10279000CD480068069000248FE11720FFF782FFE4
:1027A00000280DD12046FFF7C9FF05210290FDF753
:1027B000F3FC07462046FFF7B5FF381885B212E054
:1027C0001720FFF76FFF002804D12046FFF7AAFF6C
:1027D000054608E02046FFF7B1FF07462046FFF711
:1027E000A1FF381885B228B26100B84A5052079943
:1027F000059803F073FC00900399FDF773FDB4494D
:10280000019003F013FC0746FDF71CFE08994018E1
:1028100000B2029000206100AE4A5052AE480490CF
:1028200021460320FFF746FFA84242DC2146132041
:10283000FFF740FFA8423CDB6000A849085A401C53
:102840006100A64A505221460920FFF733FFA842F3
:1028500023DC21460B20FFF72DFFA8421DDB600083
:102860009C49095E049881420BDA002061009C4A71
:10287000505260009B49085A401C6100994A5052CE
:1028800024E060009649085A401C6100944A505266
:1028900000206100934A505218E060009049085AA5
:1028A000401C61008E4A5052002061008D4A5052F7
:1028B0000CE0002061008B4A50526100874A505260
:1028C0006100874A5052012006A90855214611206F
:1028D000FFF7F0FEA84211DD082000F039F90128C9
:1028E00007D160008049085A401C61007E4A50525E
:1028F00008E0002061007C4A505203E000206100A3
:10290000794A505221461320FFF7D4FEA84211DA2B
:10291000102000F01DF9012807D160007349085A02
:10292000401C6100714A505208E0002061006F4A6B
:10293000505203E0002061006C4A50526000674929
:10294000085A012824DB21460D20FFF7B3FE401C66
:102950006100634A515A884206DC6420610050528B
:10296000022006A9085513E021460D20FFF7A2FE1C
:10297000401C61005B4A515A884206DC64206100B9
:102980005052032006A9085502E0092006A908555F
:1029900021460D20FFF78EFE6100534A515A8842AE
:1029A00005DC642061005052052006A90855214627
:1029B0000D20FFF77FFE61004C4A515A884205DC2A
:1029C000642061005052042006A90855202000F020
:1029D000BFF8012825D106A8005D012803D10020F9
:1029E0004349085506E006A8005D032802D10120EE
:1029F0003F4908553E48005D012812D12146032079
:102A0000FFF758FEA8420CDC21460920FFF752FED2
:102A1000A84206DD06A8005D022802D1032006A90F
:102A2000085560003349085E00281EDD6000085A22
:102A3000401E00B261002F4A505260002E49085CCF
:102A40008021084306A9085500206100234A5052FE
:102A50006100244A50526100214A50526100224ACA
:102A600050526100214A50521EE00121204601F0DF
:102A70003BF806A8005D032816D121460F20FFF77A
:102A800019FE002810DD06A8005D61001A4A5052A8
:102A90000021204601F028F821460F20FFF70AFE0A
:102AA00000B26100134A5052FFF70CFE002802D119
:102AB00006A8005D3055601CC4B2022C00DA6CE63A
:102AC000012009B0F0BD0000AC6100003000002022
:102AD0000000C8422C0000200F2700003800002012
:102AE000400000203C00002044000020480000205E
:102AF00050000020340000204C00002070B5044637
:102B000000250220FFF7CEFDA04214DD0B48005D3A
:102B10000300FFF7FEF9060D0408060A0B0D012558
:102B200008E0042506E0022504E000BF032501E0DB
:102B3000012500BF00BF284670BD000054000020E2
:102B400001464800014A105A80B270473000002008
:102B500001460020034A528D0A40002A00D001207D
:102B6000704700004802002010B50024FFF7FAFD6E
:102B70000446002C06D00120FFF7EAFF002801D010
:102B8000FFF79AFB204610BD70B500252D48007850
:102B90000300FFF7BEF905041528334A5300FFF779
:102BA000C3FB002802D000F041F902E00020FFF74B
:102BB00043FD0A2000F072FF0120224908703DE029
:102BC000FFF756FC002807D000F058FC02201D49F2
:102BD00008700A2000F062FFFFF7A6FB002801D171
:102BE000FDF700FD2AE0FFF743FC002805D00A208E
:102BF00000F054FF03201349087000BFFFF738FCB2
:102C0000002811D0042110A0FFF73CFC002405E0AF
:102C10000121204600F068FF601CC4B2022CF7DBE3
:102C200004200849087000BF08E000F011F80128EE
:102C300003D1012500200349087000BF00BF2846CA
:102C400070BD0000530000207630303400000000DA
:102C50000148007870470000A8010020FFB583B04C
:102C600007460E460297002500200190059D1AE0B8
:102C700006990298FDF790FA0C46002C0ADB092C05
:102C800008DC20463030C1B2681E31540198401C27
:102C9000019002E00021681E315406990298FDF768
:102CA0007BFA02906D1E002DE2D1019807B0F0BDB5
:102CB00000205749496902221140002901D1022010
:102CC00006E05349496904221140002900D103203C
:102CD000002805DD4F490988491C4E4A118032E021
:102CE0004D490978002925DD4C490988491C4B4A82
:102CF000118011460988002909DB0021118046490D
:102D00000978474A11700021434A117015E045497E
:102D10000978012911D10021404A11803E490978E2
:102D2000402211433E4A117000213B4A11703D4A36
:102D3000117002E00021394A11800021354A1180CA
:102D40000121394A11703849097801291ED13149C8
:102D5000098805295BDB30490978002908D12E490B
:102D600008700221304A117000212A4A118009E0BE
:102D700029490978814205D101212A4A117000218F
:102D8000244A11800021254A118040E02649097813
:102D9000022911D11F490988C82938D100211E4AAA
:102DA0001170402101431E4A117003211E4A117007
:102DB0000021184A11802AE01B490978032911D102
:102DC00014490988642922D10021134A11708021F5
:102DD0000143134A11700421134A117000210D4A56
:102DE000118014E010490978042910D10949098893
:102DF00064290CD10021084A117080210143084A3E
:102E000011700421084A11700021024A1180704794
:102E100000120040180000201A0000201C000020B2
:102E2000160000201B0000201700002070B50024B1
:102E300007E0204600F012F86100074A5052601C7B
:102E4000C4B2192CF5DB0120FFF782FE0546FFF71F
:102E500055FA012070BD000048020020F8B5044674
:102E60000025002000900026002700BF10E0FEF79C
:102E7000E5FA6106080E02226946FEF7F5FA0746F2
:102E8000002F01D1012705E0FEF7D8FA701CC6B269
:102E9000032EECDB00BF012F02D007A0FDF798FB4B
:102EA000002005E06946095CC20091400D43401CCA
:102EB0000228F7DB2846F8BD303030310000000032
:102EC000FEF758FC7D21C90027480068FDF75AF934
:102ED0000446601E2549884200D90CE0601E244942
:102EE00048610321081FFEF787FD00202049886103
:102EF0000720086100BF62B601201E4908800A2031
:102F00001D49088064201D4908807D20C0001C499F
:102F1000088002F06FFE26E016480088002804D1E1
:102F200002F05CFE01201349088013480088002845
:102F300004D102F04FFE0A200F4908800F48008894
:102F4000002804D102F03AFE64200C4908800C48A5
:102F50000088002805D102F025FE7D20C000084928
:102F6000088002F043FED7E700000020FFFFFF00CB
:102F700000E000E0080000200A0000200C00002013
:102F80000E00002070B500251620FFF78BFB0028EF
:102F90000FD100240AE02046FFF7B0FD29466A1C45
:102FA000D5B24900144A5052601CC4B2022CF2DB64
:102FB00021E000241DE02046FFF7A0FD29466A1C01
:102FC000D5B249000C4A50522046FFF7B9FD2946B8
:102FD0006A1CD5B24900084A50522046FFF7BAFB96
:102FE00082B22846691CCDB2400003490A52601CD7
:102FF000C4B2022CDFDB70BD0003002038B580486E
:103000000078002806D001287ED002287DD0032831
:103010007CD1E6E06846FFF70FFA002877D000F091
:1030200053F968460078FEF7A7FF002870D075486E
:103030000078042847D17448008814283BDC734882
:1030400000887D21C90088420BDA6F4801886F48EB
:10305000008800F0A3FA6E490880012068490870D2
:1030600031E06A4800887D21C90088421ADB674840
:1030700000886849884215DA67480088002808D027
:10308000614801886148008800F0DAFA60490880E8
:1030900004E0072000F05AFA5D49088001205849F1
:1030A000087010E0022000F051FA59490880012010
:1030B0005349087007E0022000F048FA544908809C
:1030C00001204F4908704F48007806286ED14F48BC
:1030D00000887D21C900884229DB4C4800884D4981
:1030E000884224DA4C480088002817D04B480278E0
:1030F0004B494648008800F09BF804464348008846
:1031000000F0EAFA424904E051E05AE076E04DE08E
:103110003EE0088001203A49087047E0072000F0AF
:1031200015FA3B4908800120354908703EE03748D0
:1031300000883C49884222D1394800780002384949
:10314000497808430446FF20FF3084420ED14B20CB
:10315000C0003149088021462C48008800F0F4FA6C
:103160002B49088001202649087007E0072000F05D
:10317000EDF92749088001202149087016E0022056
:1031800000F0E4F92249088001201D4908700DE093
:10319000FFF7F0FA0446002C07D0204600F0D6F9DD
:1031A0001B49088001201649087000BF26E0402016
:1031B0001D49C861052000F071FC0220104908700B
:1031C0001CE0FFF755F900280AD01148017817488C
:1031D00002F02CFD052000F061FC03200849087076
:1031E0000CE0FFF745F9002807D040200E4908629F
:1031F0000020074908800249087000BF00BF38BDA1
:10320000E4010020D2010020D6010020D4010020DA
:10321000E60100204C040000DC010020D801002061
:10322000940200208813000000110040A802002032
:10323000FEB506460D4617460020029000907D2000
:10324000C000301A80B201900198192816DA0024C3
:103250000CE02046611CCCB2285C00900098000273
:103260002146621CD4B2695C08430090BC42F0DB8A
:103270000199C8B2009900F0F1FB01E00120029031
:103280000298FEBD0C480078401C0B4908700B48A2
:103290000088002804DD09480088401E074908808E
:1032A00005480078052806DD002005490870054915
:1032B0000870014908707047E2010020DC0100201D
:1032C000E0010020E1010020002001490870704762
:1032D000E2010020F8B50025002400200090FFF74F
:1032E00043FC044654480078002802D0012809D144
:1032F00009E000205149087001204F490870002062
:103300004F4908708FE00220FFF7CCF94D490022A9
:103310008A56904262DD4A480078002802D001288F
:103320005BD14AE04848474900228A56805C030046
:10333000FEF7EFFD0A24060B10151A2424241F247F
:10334000042142A0FFF79EF818E0042141A0FFF7F6
:1033500099F813E0042141A0FFF794F80EE004214E
:1033600040A0FFF78FF809E0042140A0FFF78AF89A
:1033700004E004213FA0FFF785F800BF00BF3148FB
:10338000007800280CD13121684601700078802136
:1033900008436946087001216846FFF773F80BE09F
:1033A0003221684601700078802108436946087020
:1033B00001216846FFF766F80FE022490878FFF719
:1033C000BFFB06460A23042269463046FFF746FC47
:1033D00004216846FFF756F800BF00BF022C12D147
:1033E00018480078401C40B2164908700220FFF7C8
:1033F00059F906463146134A00201056FCF7CCFE18
:10340000104801700EE0032C0CD10D480078401CD0
:103410000B4908700878C10F091849104900411A72
:10342000074A117000BF00BF432C03D1012003499C
:10343000087001252846F8BD6800002060000020C3
:10344000690000206A00002054000020206E6F7286
:1034500000000000206C616B000000002068326FEB
:103460000000000020736874000000002062726B8E
:103470000000000020416E6C000000000D48007844
:10348000012815D10C480D490880FA2048800C48C5
:103490008880FA210948C1800A4808490881FA2130
:1034A0000648418101200849087003200749088027
:1034B000704700002100002072770000F801002012
:1034C000CD5E0000B84F0000200000201E0000204C
:1034D00010B50446012C03D10220FFF739FB02E0AE
:1034E0000220FFF735FB10BDF8B505460E46002754
:1034F00000240020009000BF05E0C2003146D1400A
:103500006A461154401C0228F7DB002710E0FDF743
:1035100095FF6906080E02226946FEF785F8044603
:10352000002C01D1012405E0FDF788FF781CC7B20B
:10353000032FECDB00BF012C02D002A0FDF748F8FE
:103540002046F8BD303030300000000070B5054630
:1035500000240120FFF7A6F8C2B22146641C0D48E2
:1035600042540D480178802001432246641C0948DA
:1035700081542146641C45542146FEF7FDFE064653
:103580002146641C0348465432122146641C4254AE
:10359000204670BDA8020020D2010020F3B581B002
:1035A0000E46002400250020009001980090012084
:1035B000FFF778F8C2B22146641C1E4842541E48E8
:1035C00002782146641C1B4842547006020E2146B4
:1035D000641C1848425400BF17E000994919142987
:1035E00001DB002004E0009949194900134A505AB0
:1035F00002122146631C9CB20E4B5A542146631C96
:103600009CB20C4B5854681C85B2B542E5DB214690
:103610000848FEF7B1FE07462046611C8CB20549FA
:103620000F543A122046611C8CB202490A542046BB
:10363000FEBD0000A8020020D201002000030020EF
:10364000F3B581B00D46002400270120FFF72AF8CA
:10365000C2B22146641C1E4842541E4802782146CC
:10366000641C1B4842546806020E2146641C18481C
:10367000425400BF18E07D22D2000199891AC9196D
:10368000C8B2FFF70FF80090009802122046611CA4
:103690008CB20F490A540098C2B22046611C8CB209
:1036A0000B490A54781C87B2AF42E4DB2146084834
:1036B000FEF762FE06462046611C8CB204490E5499
:1036C00032122046611C8CB201490A542046FEBDCC
:1036D000A8020020D2010020F8B5054600247D2173
:1036E000C900691AC8B2FEF7DDFF07460120FEF7E0
:1036F000D9FFC2B22146641C1148425411480278D5
:103700002146641C0E4842542A122146641C42542D
:103710002146641C45543A122146641C42542146F9
:10372000641C47542146FEF727FE06462146641CCA
:103730000348465432122146641C42542046F8BDC8
:10374000A8020020D2010020F8B505460E4600244C
:103750000120FEF7A7FFC2B22146641C1148425463
:10376000114802782146641C0E4842542A12214610
:10377000641C42542146641C455432122146641C88
:1037800042542146641C46542146FEF7F5FD074687
:103790002146641C034847543A122146641C425493
:1037A0002046F8BDA8020020D201002010B50A482A
:1037B0000078002802D001280AD104E00920FEF791
:1037C00055FF044604E00820FEF750FF044600BF02
:1037D00000BF204610BD00008A01002010B58C48B3
:1037E000008800287ED08B480078012803D1002073
:1037F000884908700AE18848007800281AD187486B
:103800000088401C85490880012000F081F90120D2
:10381000FEF7C8FD814800887D21C9008842E9DBA8
:1038200000207E49088001207B49087000207C49E7
:103830000860EBE07848007801281CD1FFF7B6FF5C
:103840007749096840187649086074480088401C28
:1038500072490880FFF7AAFF724908806F48008804
:10386000FF21F5318842C5DB00206C490880022029
:1038700069490870CAE068480078022817D167488B
:103880000088401C65490880002000F041F9634829
:1038900000887D21C9008842ACDB00205F49088098
:1038A00003205D49087000205F490860AEE05A4877
:1038B000007803281AD1FFF779FF5B49096840189F
:1038C0005949086055480088401C544908800846FA
:1038D0000088FF21F53188428CDB00204F490880A9
:1038E000042000E088E04C4908708FE04A480078E6
:1038F00004289ED149480088401C4849088000207F
:10390000FEF750FD454800887D21C90088427DDBD7
:103910000020424908804049087001203D49087054
:10392000FF21F53140480068FCF72CFC3F4909882D
:1039300049003F4A50523F4800883C4909884900A5
:103940003D4A5052FF21F53135480068FCF71AFC1A
:10395000364909884900394A505239480088334964
:1039600009884900374A505230480088401C2F4986
:10397000088008460088022848D1002008800221DB
:103980002E48FEF7A5FE304909784A002F49885293
:103990002D48007841002D48405A2D4908800221C9
:1039A0002848FEF7A7FE284909788900294A50507F
:1039B00002212248FEF79EFE234909788A00254904
:1039C0000831885020480078401C1F49087008467C
:1039D0000078022802D101201F4908701A4908788E
:1039E000C10F091849104900411A174A11701046B1
:1039F000007800F059F809E001200649087000201D
:103A000005490870054908800849088010BD000074
:103A100088010020AA010020A9010020CC0100207B
:103A2000AC0100208C010020B0010020CE0100205C
:103A3000C4010020B8010020C8010020BC01002002
:103A4000B4010020C00100208A0100209201002062
:103A50009601002084020020A801002070B50546D0
:103A60000C46680003490C5221462846FFF73CFDEE
:103A7000204670BD4802002070B505460E4614462B
:103A8000A819400004490C52A919C8B22146FFF7F1
:103A90002BFD204670BD000048020020014908604F
:103AA000704700001000002000B50300FEF731FA57
:103AB00005040A101112130008210A4A1162042198
:103AC000D1610DE00421074A11620821D16107E0AC
:103AD00006E005E004E00421024A1162116200BF21
:103AE00000BF00BD00110040002907D00122824024
:103AF000064B1B881A43054B1A8006E001228240C0
:103B0000024B1B889343014A1380704788010020B1
:103B1000002806D08021064AD1610121054AD161E1
:103B200005E08021024A11620121024A11627047B8
:103B3000001100400012004070B504460D46012DF2
:103B400005D10A48408D20430849488504E00748CC
:103B5000408DA043054948850448418D1520FFF755
:103B6000C3FC0248408DC0B270BD00004802002076
:103B700070B50024002519480078800018490E58B7
:103B8000B0470546012D04D0022D10D0032D21D1C0
:103B90001BE012480078002803D118200F49087054
:103BA00004E00E480078401E0C49087012E00B48F3
:103BB0000078401C09490870192108480078FCF772
:103BC000EBFAC8B20549087004E000200349087008
:103BD000012400BF00BF204670BD0000D0000020BF
:103BE0006C00002070B500250024FEF7BDFF0446E0
:103BF00025480078002818D10820FEF7A9FF23499E
:103C000008700020FEF712FD022C02D0032C06D112
:103C100001E0022503E001201B49087000BF00BF3E
:103C200004211BA0FEF79EFC2CE0F020FEF7FEFC1A
:103C3000022C02D0432C17D10DE014480078401C10
:103C4000124908700878C10F091849104900411A33
:103C50000E4A117008E00D4801780820FFF76CFF4C
:103C600000200949087000BF00BF084800780028FC
:103C700004D0042108A0FEF775FC03E0042108A08D
:103C8000FEF770FC284670BD65010020640100202D
:103C900062726F43000000004F6E202000000000A1
:103CA0004F46462000000000F8B500250024FEF72E
:103CB0005BFF044657480078002826D15649087013
:103CC00000211120FEF7F6FC544908600A215348F0
:103CD0000068FCF761FAC8B2514908700020FEF78D
:103CE000A5FC022C02D0032C06D101E0022503E042
:103CF00001204849087000BF00BF042149A0FEF719
:103D000031FC0020FEF784FC81E043490A78082159
:103D100011410846FEF78AFC022C3FD0032C02D04A
:103D2000432C57D14BE03C480022825650003F4A7A
:103D3000115A3A480068FCF72FFA06460A21FCF7A8
:103D40002BFAC8B236490870334800214156480062
:103D50003649085A32490978484330490968081AEF
:103D60002E4908602E490978491CC9B22C4A1170A5
:103D700008460A21FCF710FAC8B2294908702648FB
:103D80000021415648002949085A254909784843E5
:103D9000224909684018214908601BE01E48007844
:103DA000401C40B21C49087000200856C117890FFA
:103DB000091889108900411A174A11700AE017483A
:103DC000008882B200211120FFF756FE0020114921
:103DD000087000BF00BF1148006801210903884234
:103DE00002DD00200D4908600C480068002803DA55
:103DF00001200003094908600A2304226946074894
:103E00000068FEF72BFF04216846FEF7ABFB28464F
:103E1000F8BD00002201002029010020240100201B
:103E2000280100203142726B00000000AE610000EA
:103E3000F8B500250024FEF797FE044657480078A1
:103E4000002826D15649087001211120FEF732FCC6
:103E5000544908600A2153480068FCF79DF9C8B22C
:103E6000514908700020FEF7E1FB022C02D0032C20
:103E700006D101E0022503E001204849087000BF97
:103E800000BF042149A0FEF76DFB0020FEF7C0FB38
:103E900081E043490A78082111410846FEF7C6FB34
:103EA000022C3FD0032C02D0432C57D14BE03C488E
:103EB0000022825650003F4A115A3A480068FCF7E7
:103EC0006BF906460A21FCF767F9C8B23649087053
:103ED00033480021415648003649085A324909788A
:103EE000484330490968081A2E4908602E49097864
:103EF000491CC9B22C4A117008460A21FCF74CF93A
:103F0000C8B229490870264800214156480029496D
:103F1000085A254909784843224909684018214927
:103F200008601BE01E480078401C40B21C49087025
:103F300000200856C117890F091889108900411AF5
:103F4000174A11700AE01748008882B20121112037
:103F5000FFF792FD00201149087000BF00BF114813
:103F6000006801210903884202DD00200D49086034
:103F70000C480068002803DA0120000309490860A2
:103F80000A230422694607480068FEF767FE0421F9
:103F90006846FEF7E7FA2846F8BD00002A0100202F
:103FA000310100202C010020300100203242726BD0
:103FB00000000000AE61000070B500250024FEF78F
:103FC000D3FD044628480078002818D10120FEF7C8
:103FD000BFFD264908700020FEF728FB022C02D006
:103FE000032C06D101E0022503E001201E490870E0
:103FF00000BF00BF04211EA0FEF7B4FA32E0F0209B
:10400000FEF714FB022C02D0432C1DD10DE0174803
:104010000078401C154908700878C10F091849102C
:104020004900411A114A11700EE010480178012030
:10403000FFF782FD0120FEF78BFD0646FEF75EF9D5
:1040400000200949087000BF00BF08480078002818
:1040500004D0042108A0FEF785FA03E0042108A09B
:10406000FEF780FA284670BD6B0100206A0100202F
:10407000536F6E64000000004F6E202000000000AF
:104080004F4646200000000070B5002400250421A2
:104090000AA0FEF767FAFEF767FD0546022D02D07B
:1040A000032D08D101E0022405E0FDF705FFFDF72F
:1040B0002BFF032400BF00BF204670BD4558495464
:1040C00000000000F8B500260025FEF74DFD05466E
:1040D00052480078002815D1FEF7A8FA022D02D028
:1040E000032D09D101E0022606E000204C490870AA
:1040F00001204A49087000BF00BF042149A0FEF713
:1041000031FA89E046490A78082111410846FEF74C
:104110008DFA022D3FD0032D02D0432D60D14BE00C
:104120003F48002282565000404A115A40480068D9
:10413000FCF732F807460A21FCF72EF8C8B23D49D1
:10414000087037480021415648003849085A394913
:104150000978484336490968081A354908603549DD
:104160000978491CC9B2334A117008460A21FCF784
:1041700013F8C8B22F490870294800214156480059
:104180002A49085A2B49097848432949096840189F
:104190002749086024E022480078401C40B22049AA
:1041A000087000200856C117890F09188910890066
:1041B000411A1B4A117013E01D480068FF21FF31AE
:1041C000884207D10020FEF737FAFDF775FEFDF7AC
:1041D0009BFE04E00020164908601049087000BFEB
:1041E00000BF0A230422694611480068FEF736FD25
:1041F00000240BE00A48002141568C4204D02D20B7
:104200000321091B6A465054601CC4B2042CF1DB24
:1042100004216846FEF7A6F93046F8BD700100207B
:10422000720100204645437400000000AE610000AA
:104230006C0100207101002070B500250024FEF7FC
:1042400093FC044625480078002818D12020FEF76A
:104250007FFC234908700020FEF7E8F9022C02D009
:10426000032C06D101E0022503E001201B49087060
:1042700000BF00BF04211BA0FEF774F92CE0F02062
:10428000FEF7D4F9022C02D0432C17D10DE01448CC
:104290000078401C124908700878C10F09184910AD
:1042A0004900411A0E4A117008E00D48017820209B
:1042B000FFF742FC00200949087000BF00BF084812
:1042C0000078002804D0042108A0FEF74BF903E091
:1042D000042108A0FEF746F9284670BD69010020B8
:1042E0006801002048647279000000004F6E2020B1
:1042F000000000004F4646200000000070B5002579
:104300000024FEF731FC044624480078002818D128
:104310000420FEF71DFC224908700020FEF786F9F4
:10432000022C02D0032C06D101E0022503E001207B
:104330001A49087000BF00BF04211AA0FEF712F945
:1043400029E0022C02D0432C17D10DE0144800784C
:10435000401C134908700878C10F0918491049001A
:10436000411A0F4A117008E00D4801780420FFF748
:10437000E3FB00200949087000BF00BF084800782F
:10438000002804D0042109A0FEF7ECF803E0042182
:1043900008A0FEF7E7F8284670BD00006301002082
:1043A0006201002048326F72000000004F6E202032
:1043B000000000004F46462000000000F8B5002530
:1043C0000024FEF7D1FB044653480078002822D190
:1043D000524908700120FEF765F9514908600A2129
:1043E0004F480068FBF7D8FEC8B24E49087000205D
:1043F000FEF71CF9022C02D0032C06D101E00225A5
:1044000003E001204449087000BF00BF042146A01A
:10441000FEF7A8F87DE041490A78082111410846D5
:10442000FEF704F9022C3FD0032C02D0432C56D1C6
:104430004BE03A480022825650003D4A115A384813
:104440000068FBF7A9FE06460A21FBF7A5FEC8B2E5
:104450003449087031480021415648003449085A0F
:104460003049097848432E490968081A2C490860E0
:104470002C490978491CC9B22A4A117008460A21F8
:10448000FBF78AFEC8B2274908702448002141562C
:1044900048002749085A23490978484320490968B0
:1044A00040181F4908601AE01C480078401C40B2C0
:1044B0001A49087000200856C117890F0918891079
:1044C0008900411A154A117009E01548008881B227
:1044D0000120FFF7C3FA00200F49087000BF00BF9A
:1044E0000F480068FF2802DD01200D4908600C48D4
:1044F0000068012802DAFF20094908600A23042223
:10450000694607480068FEF7A9FB04216846FEF7E4
:1045100029F82846F8BD000079010020810100201B
:104520007C010020800100204D2D49440000000046
:10453000AE61000070B500250024FEF715FB0446AF
:104540002C480078002819D100211620FEF7B2F877
:10455000294908800020FEF769F8022C02D0032CBC
:1045600006D101E0022503E001202249087000BFC6
:1045700000BF042121A0FDF7F5FF39E0F020FEF790
:1045800055F8022C02D0432C18D10DE01A480088AF
:10459000401C19490880032117480088FBF7FCFDDF
:1045A00088B21549088009E01348028800211620C6
:1045B000FFF762FA00200F49087000BF00BF0E48E5
:1045C0000088002804D0012807D002280FD109E074
:1045D00004210CA0FDF7C6FF09E004210BA0FDF7A4
:1045E000C1FF04E004210BA0FDF7BCFF00BF00BF2A
:1045F000284670BD78010020760100204D2D205600
:1046000000000000202076310000000020207632DB
:10461000000000002020763300000000F8B50025DF
:104620000024FEF7A1FA044657480078002826D156
:104630005649087000210320FEF73CF854490860F1
:104640000A2153480068FBF7A7FDC8B2514908701A
:104650000020FDF7EBFF022C02D0032C06D101E075
:10466000022503E001204849087000BF00BF042173
:1046700049A0FDF777FF0020FDF7CAFF81E043491D
:104680000A78082111410846FDF7D0FF022C3FD0DF
:10469000032C02D0432C57D14BE03C4800228256D9
:1046A00050003F4A115A3A480068FBF775FD06462C
:1046B0000A21FBF771FDC8B2364908703348002162
:1046C000415648003649085A32490978484330492A
:1046D0000968081A2E4908602E490978491CC9B290
:1046E0002C4A117008460A21FBF756FDC8B2294929
:1046F000087026480021415648002949085A254992
:1047000009784843224909684018214908601BE09C
:104710001E480078401C40B21C4908700020085612
:10472000C117890F091889108900411A174A117099
:104730000AE01748008882B200210320FFF79CF9A5
:1047400000201149087000BF00BF11480068012116
:104750000903884202DD00200D4908600C4800680A
:10476000002803DA01200003094908600A23042213
:10477000694607480068FEF771FA04216846FDF7AC
:10478000F1FE2846F8BD0000D1000020D90000202D
:10479000D4000020D8000020314C454C000000001F
:1047A000AE610000F8B500250024FEF7DDF90446EF
:1047B00057480078002826D1564908700121032067
:1047C000FDF778FF544908600A2153480068FBF759
:1047D000E3FCC8B2514908700020FDF727FF022C06
:1047E00002D0032C06D101E0022503E00120484954
:1047F000087000BF00BF042149A0FDF7B3FE0020F0
:10480000FDF706FF81E043490A7808211141084677
:10481000FDF70CFF022C3FD0032C02D0432C57D1C4
:104820004BE03C480022825650003F4A115A3A4819
:104830000068FBF7B1FC06460A21FBF7ADFCC8B2E5
:104840003649087033480021415648003649085A15
:1048500032490978484330490968081A2E490860E6
:104860002E490978491CC9B22C4A117008460A2100
:10487000FBF792FCC8B2294908702648002141562E
:1048800048002949085A25490978484322490968B6
:104890004018214908601BE01E480078401C40B2C7
:1048A0001C49087000200856C117890F0918891083
:1048B0008900411A174A11700AE01748008882B22D
:1048C00001210320FFF7D8F800201149087000BF2C
:1048D00000BF1148006801210903884202DD002061
:1048E0000D4908600C480068002803DA0120000325
:1048F000094908600A230422694607480068FEF750
:10490000ADF904216846FDF72DFE2846F8BD0000EC
:10491000DA000020E1000020DC000020E0000020A0
:10492000324C454C00000000AE61000070B500251F
:104930000024FEF719F9044625480078002818D10C
:104940004020FEF705F9234908700020FDF76EFEB0
:10495000022C02D0032C06D101E0022503E0012045
:104960001B49087000BF00BF04211BA0FDF7FAFD22
:104970002CE0F020FDF75AFE022C02D0432C17D178
:104980000DE014480078401C124908700878C10FE7
:10499000091849104900411A0E4A117008E00D48E3
:1049A00001784020FFF7C8F800200949087000BFCF
:1049B00000BF08480078002804D0042108A0FDF7B3
:1049C000D1FD03E0042108A0FDF7CCFD284670BD11
:1049D0007401002073010020724543530000000061
:1049E0004175746F00000000486F6C6400000000A7
:1049F00070B500250024FEF7B7F804462448007877
:104A0000002818D10220FEF7A3F8224908700020E0
:104A1000FDF70CFE022C02D0032C06D101E002258A
:104A200003E001201A49087000BF00BF04211AA04A
:104A3000FDF798FD29E0022C02D0432C17D10DE0A0
:104A400014480078401C134908700878C10F0918F1
:104A500049104900411A0F4A117008E00D480178C9
:104A60000220FFF769F800200949087000BF00BF65
:104A700008480078002804D0042109A0FDF772FD41
:104A800003E0042108A0FDF76DFD284670BD00007D
:104A9000830100208201002052654C790000000053
:104AA0004E6F2020000000004E6320200000000018
:104AB00070B500250024FEF757F804462548007815
:104AC000002818D11020FEF743F823490870002071
:104AD000FDF7ACFD022C02D0032C06D101E002252B
:104AE00003E001201B49087000BF00BF04211BA088
:104AF000FDF738FD2CE0F020FDF798FD022C02D0E8
:104B0000432C17D10DE014480078401C124908705E
:104B10000878C10F091849104900411A0E4A11704E
:104B200008E00D4801781020FFF706F80020094939
:104B3000087000BF00BF08480078002804D0042196
:104B400008A0FDF70FFD03E0042108A0FDF70AFD12
:104B5000284670BD67010020660100205368744339
:104B6000000000004F6E2020000000004F4646204D
:104B700000000000F8B500250024FDF7F5FF04460D
:104B800057480078002826D1564908700021132084
:104B9000FDF790FD544908600A2153480068FBF76F
:104BA000FBFAC8B2514908700020FDF73FFD022C06
:104BB00002D0032C06D101E0022503E00120484980
:104BC000087000BF00BF042149A0FDF7CBFC002006
:104BD000FDF71EFD81E043490A780821114108468E
:104BE000FDF724FD022C3FD0032C02D0432C57D1DB
:104BF0004BE03C480022825650003F4A115A3A4846
:104C00000068FBF7C9FA06460A21FBF7C5FAC8B2E5
:104C10003649087033480021415648003649085A41
:104C200032490978484330490968081A2E49086012
:104C30002E490978491CC9B22C4A117008460A212C
:104C4000FBF7AAFAC8B22949087026480021415644
:104C500048002949085A25490978484322490968E2
:104C60004018214908601BE01E480078401C40B2F3
:104C70001C49087000200856C117890F09188910AF
:104C80008900411A174A11700AE01748008882B259
:104C900000211320FEF7F0FE00201149087000BF2C
:104CA00000BF1148006801210903884202DD00208D
:104CB0000D4908600C480068002803DA0120000351
:104CC000094908600A230422694607480068FDF77D
:104CD000C5FF04216846FDF745FC2846F8BD0000E5
:104CE0003201002039010020340100203801002069
:104CF000314C454800000000AE610000F8B50025C9
:104D00000024FDF731FF044657480078002826D1DB
:104D10005649087001211320FDF7CCFC5449086066
:104D20000A2153480068FBF737FAC8B251490870A6
:104D30000020FDF77BFC022C02D0032C06D101E001
:104D4000022503E001204849087000BF00BF04218C
:104D500049A0FDF707FC0020FDF75AFC81E043491C
:104D60000A78082111410846FDF760FC022C3FD06B
:104D7000032C02D0432C57D14BE03C4800228256F2
:104D800050003F4A115A3A480068FBF705FA0646B8
:104D90000A21FBF701FAC8B23649087033480021EE
:104DA000415648003649085A324909784843304943
:104DB0000968081A2E4908602E490978491CC9B2A9
:104DC0002C4A117008460A21FBF7E6F9C8B22949B6
:104DD000087026480021415648002949085A2549AB
:104DE00009784843224909684018214908601BE0B6
:104DF0001E480078401C40B21C490870002008562C
:104E0000C117890F091889108900411A174A1170B2
:104E10000AE01748008882B201211320FEF72CFE19
:104E200000201149087000BF00BF1148006801212F
:104E30000903884202DD00200D4908600C48006823
:104E4000002803DA01200003094908600A2304222C
:104E5000694607480068FDF701FF04216846FDF731
:104E600081FB2846F8BD00003A01002041010020E6
:104E70003C01002040010020324C45480000000069
:104E8000AE610000F8B500250024FDF76DFE044674
:104E900056480078002826D15549087000210D2079
:104EA000FDF708FC534908600A2152480068FBF7E7
:104EB00073F9C8B2504908700020FDF7B7FB022C07
:104EC00002D0032C06D101E0022503E0012047496E
:104ED000087000BF00BF042148A0FDF743FB00207D
:104EE000FDF796FB7FE042490A7808211141084608
:104EF000FDF79CFB022C3FD0032C02D0432C57D152
:104F00004BE03B480022825650003E4A115A394835
:104F10000068FBF741F906460A21FBF73DF9C8B2E4
:104F20003549087032480021415648003549085A31
:104F30003149097848432F490968081A2D49086002
:104F40002D490978491CC9B22B4A117008460A211B
:104F5000FBF722F9C8B228490870254800214156BC
:104F600048002849085A24490978484321490968D2
:104F70004018204908601BE01D480078401C40B2E2
:104F80001B49087000200856C117890F091889109D
:104F90008900411A164A11700AE01648008882B248
:104FA00000210D20FEF768FD00201049087000BFA9
:104FB00000BF104800681449884202DD00200D49F6
:104FC00008600C480068002802DA0F4809490860A8
:104FD0000A230422694607480068FDF73FFE0421C2
:104FE0006846FDF7BFFA2846F8BD000042010020E0
:104FF000490100204401002048010020314C445464
:1050000000000000AE610000E7030000F8B50025D5
:105010000024FDF7A9FD044656480078002826D153
:105020005549087001210D20FDF744FB53490860E4
:105030000A2152480068FBF7AFF8C8B2504908701F
:105040000020FDF7F3FA022C02D0032C06D101E078
:10505000022503E001204749087000BF00BF04217A
:1050600048A0FDF77FFA0020FDF7D2FA7FE0424921
:105070000A78082111410846FDF7D8FA022C3FD0E2
:10508000032C02D0432C57D14BE03B4800228256E0
:1050900050003E4A115A39480068FBF77DF8064631
:1050A0000A21FBF779F8C8B2354908703248002167
:1050B000415648003549085A3149097848432F4933
:1050C0000968081A2D4908602D490978491CC9B298
:1050D0002B4A117008460A21FBF75EF8C8B228492E
:1050E000087025480021415648002849085A24499B
:1050F00009784843214909684018204908601BE0A5
:105100001D480078401C40B21B490870002008561A
:10511000C117890F091889108900411A164A1170A0
:105120000AE01648008882B201210D20FEF7A4FC97
:1051300000201049087000BF00BF104800681449E3
:10514000884202DD00200D4908600C4800680028F4
:1051500002DA0F48094908600A2304226946074811
:105160000068FDF77BFD04216846FDF7FBF9284642
:10517000F8BD00004A010020510100204C01002030
:1051800050010020324C445400000000AE61000089
:10519000E7030000F8B500250024FDF7E5FC044610
:1051A00057480078002826D1564908700021092068
:1051B000FDF780FA544908600A2153480068FAF75D
:1051C000EBFFC8B2514908700020FDF72FFA022CFE
:1051D00002D0032C06D101E0022503E0012048495A
:1051E000087000BF00BF042149A0FDF7BBF90020F3
:1051F000FDF70EFA81E043490A780821114108467B
:10520000FDF714FA022C3FD0032C02D0432C57D1C7
:105210004BE03C480022825650003F4A115A3A481F
:105220000068FAF7B9FF06460A21FAF7B5FFC8B2D7
:105230003649087033480021415648003649085A1B
:1052400032490978484330490968081A2E490860EC
:105250002E490978491CC9B22C4A117008460A2106
:10526000FAF79AFFC8B2294908702648002141562A
:1052700048002949085A25490978484322490968BC
:105280004018214908601BE01E480078401C40B2CD
:105290001C49087000200856C117890F0918891089
:1052A0008900411A174A11700AE01748008882B233
:1052B00000210920FEF7E0FB00201149087000BF23
:1052C00000BF1148006801210903884202DD002067
:1052D0000D4908600C480068002803DA012000032B
:1052E000094908600A230422694607480068FDF757
:1052F000B5FC04216846FDF735F92846F8BD0000E5
:105300000201002009010020040100200801002002
:105310003148324C00000000AE610000F8B50025B5
:105320000024FDF721FC044657480078002826D1C8
:105330005649087001210920FDF7BCF9544908605D
:105340000A2153480068FAF727FFC8B2514908708C
:105350000020FDF76BF9022C02D0032C06D101E0EE
:10536000022503E001204849087000BF00BF042166
:1053700049A0FDF7F7F80020FDF74AF981E043491D
:105380000A78082111410846FDF750F9022C3FD058
:10539000032C02D0432C57D14BE03C4800228256CC
:1053A00050003F4A115A3A480068FAF7F5FE06469F
:1053B0000A21FAF7F1FEC8B23649087033480021D5
:1053C000415648003649085A32490978484330491D
:1053D0000968081A2E4908602E490978491CC9B283
:1053E0002C4A117008460A21FAF7D6FEC8B229499C
:1053F000087026480021415648002949085A254985
:1054000009784843224909684018214908601BE08F
:105410001E480078401C40B21C4908700020085605
:10542000C117890F091889108900411A174A11708C
:105430000AE01748008882B201210920FEF71CFB10
:1054400000201149087000BF00BF11480068012109
:105450000903884202DD00200D4908600C480068FD
:10546000002803DA01200003094908600A23042206
:10547000694607480068FDF7F1FB04216846FDF71F
:1054800071F82846F8BD00000A0100201101002033
:105490000C010020100100203248324C00000000B6
:1054A000AE610000F8B500250024FDF75DFB044661
:1054B00056480078002826D15549087000210F2051
:1054C000FDF7F8F8534908600A2152480068FAF7D6
:1054D00063FEC8B2504908700020FDF7A7F8022CFF
:1054E00002D0032C06D101E0022503E00120474948
:1054F000087000BF00BF042148A0FDF733F800206A
:10550000FDF786F87FE042490A78082111410846F4
:10551000FDF78CF8022C3FD0032C02D0432C57D13E
:105520004BE03B480022825650003E4A115A39480F
:105530000068FAF731FE06460A21FAF72DFEC8B2D6
:105540003549087032480021415648003549085A0B
:105550003149097848432F490968081A2D490860DC
:105560002D490978491CC9B22B4A117008460A21F5
:10557000FAF712FEC8B228490870254800214156A2
:1055800048002849085A24490978484321490968AC
:105590004018204908601BE01D480078401C40B2BC
:1055A0001B49087000200856C117890F0918891077
:1055B0008900411A164A11700AE01648008882B222
:1055C00000210F20FEF758FA00201049087000BF94
:1055D00000BF104800681449884202DD00200D49D0
:1055E00008600C480068002802DA0F480949086082
:1055F0000A230422694607480068FDF72FFB0421AF
:105600006846FCF7AFFF2846F8BD000052010020B5
:10561000590100205401002058010020314C505401
:1056200000000000AE610000E7030000F8B50025AF
:105630000024FDF799FA044656480078002826D140
:105640005549087001210F20FDF734F853490860CF
:105650000A2152480068FAF79FFDC8B25049087005
:105660000020FCF7E3FF022C02D0032C06D101E05E
:10567000022503E001204749087000BF00BF042154
:1056800048A0FCF76FFF0020FCF7C2FF7FE0424913
:105690000A78082111410846FCF7C8FF022C3FD0C8
:1056A000032C02D0432C57D14BE03B4800228256BA
:1056B00050003E4A115A39480068FAF76DFD064617
:1056C0000A21FAF769FDC8B235490870324800214D
:1056D000415648003549085A3149097848432F490D
:1056E0000968081A2D4908602D490978491CC9B272
:1056F0002B4A117008460A21FAF74EFDC8B2284914
:10570000087025480021415648002849085A244974
:1057100009784843214909684018204908601BE07E
:105720001D480078401C40B21B49087000200856F4
:10573000C117890F091889108900411A164A11707A
:105740000AE01648008882B201210F20FEF794F982
:1057500000201049087000BF00BF104800681449BD
:10576000884202DD00200D4908600C4800680028CE
:1057700002DA0F48094908600A23042269460748EB
:105780000068FDF76BFA04216846FCF7EBFE28463B
:10579000F8BD00005A010020610100205C010020DA
:1057A00060010020324C505400000000AE61000047
:1057B000E7030000F8B500250024FDF7D5F90446FD
:1057C00057480078002826D15649087000210B2040
:1057D000FCF770FF544908600A2153480068FAF743
:1057E000DBFCC8B2514908700020FCF71FFF022CF7
:1057F00002D0032C06D101E0022503E00120484934
:10580000087000BF00BF042149A0FCF7ABFE0020D8
:10581000FCF7FEFE81E043490A7808211141084661
:10582000FCF704FF022C3FD0032C02D0432C57D1AD
:105830004BE03C480022825650003F4A115A3A48F9
:105840000068FAF7A9FC06460A21FAF7A5FCC8B2D7
:105850003649087033480021415648003649085AF5
:1058600032490978484330490968081A2E490860C6
:105870002E490978491CC9B22C4A117008460A21E0
:10588000FAF78AFCC8B22949087026480021415617
:1058900048002949085A2549097848432249096896
:1058A0004018214908601BE01E480078401C40B2A7
:1058B0001C49087000200856C117890F0918891063
:1058C0008900411A174A11700AE01748008882B20D
:1058D00000210B20FEF7D0F800201149087000BF0E
:1058E00000BF1148006801210903884202DD002041
:1058F0000D4908600C480068002803DA0120000305
:10590000094908600A230422694607480068FDF730
:10591000A5F904216846FCF725FE2846F8BD0000DD
:10592000120100201901002014010020180100209C
:105930003148324800000000AE610000F8B5002593
:105940000024FDF711F9044657480078002826D1B5
:105950005649087001210B20FCF7ACFE5449086041
:105960000A2153480068FAF717FCC8B25149087079
:105970000020FCF75BFE022C02D0032C06D101E0D4
:10598000022503E001204849087000BF00BF042140
:1059900049A0FCF7E7FD0020FCF73AFE81E043490F
:1059A0000A78082111410846FCF740FE022C3FD03E
:1059B000032C02D0432C57D14BE03C4800228256A6
:1059C00050003F4A115A3A480068FAF7E5FB06468C
:1059D0000A21FAF7E1FBC8B23649087033480021C2
:1059E000415648003649085A3249097848433049F7
:1059F0000968081A2E4908602E490978491CC9B25D
:105A00002C4A117008460A21FAF7C6FBC8B2294988
:105A1000087026480021415648002949085A25495E
:105A200009784843224909684018214908601BE069
:105A30001E480078401C40B21C49087000200856DF
:105A4000C117890F091889108900411A174A117066
:105A50000AE01748008882B201210B20FEF70CF8FB
:105A600000201149087000BF00BF114800680121E3
:105A70000903884202DD00200D4908600C480068D7
:105A8000002803DA01200003094908600A230422E0
:105A9000694607480068FDF7E1F804216846FCF70D
:105AA00061FD2846F8BD00001A01002021010020F8
:105AB0001C01002020010020324832480000000074
:105AC000AE61000010B52F480078012851D12E4852
:105AD0000088002842D12D4800882D490988884235
